{
  "contractName": "Asignatura",
  "abi": [
    {
      "inputs": [
        {
          "internalType": "string",
          "name": "_nombre",
          "type": "string"
        },
        {
          "internalType": "string",
          "name": "_curso",
          "type": "string"
        }
      ],
      "stateMutability": "nonpayable",
      "type": "constructor"
    },
    {
      "inputs": [
        {
          "internalType": "address",
          "name": "",
          "type": "address"
        },
        {
          "internalType": "uint256",
          "name": "",
          "type": "uint256"
        }
      ],
      "name": "calificaciones",
      "outputs": [
        {
          "internalType": "enum Asignatura.TipoNota",
          "name": "tipo",
          "type": "uint8"
        },
        {
          "internalType": "uint256",
          "name": "calificacion",
          "type": "uint256"
        }
      ],
      "stateMutability": "view",
      "type": "function"
    },
    {
      "inputs": [],
      "name": "curso",
      "outputs": [
        {
          "internalType": "string",
          "name": "",
          "type": "string"
        }
      ],
      "stateMutability": "view",
      "type": "function"
    },
    {
      "inputs": [
        {
          "internalType": "address",
          "name": "",
          "type": "address"
        }
      ],
      "name": "datosAlumno",
      "outputs": [
        {
          "internalType": "string",
          "name": "nombre",
          "type": "string"
        },
        {
          "internalType": "string",
          "name": "email",
          "type": "string"
        }
      ],
      "stateMutability": "view",
      "type": "function"
    },
    {
      "inputs": [
        {
          "internalType": "uint256",
          "name": "",
          "type": "uint256"
        }
      ],
      "name": "evaluaciones",
      "outputs": [
        {
          "internalType": "string",
          "name": "nombre",
          "type": "string"
        },
        {
          "internalType": "uint256",
          "name": "fecha",
          "type": "uint256"
        },
        {
          "internalType": "uint256",
          "name": "porcentaje",
          "type": "uint256"
        }
      ],
      "stateMutability": "view",
      "type": "function"
    },
    {
      "inputs": [
        {
          "internalType": "uint256",
          "name": "",
          "type": "uint256"
        }
      ],
      "name": "matriculas",
      "outputs": [
        {
          "internalType": "address",
          "name": "",
          "type": "address"
        }
      ],
      "stateMutability": "view",
      "type": "function"
    },
    {
      "inputs": [],
      "name": "nombre",
      "outputs": [
        {
          "internalType": "string",
          "name": "",
          "type": "string"
        }
      ],
      "stateMutability": "view",
      "type": "function"
    },
    {
      "inputs": [],
      "name": "profesor",
      "outputs": [
        {
          "internalType": "address",
          "name": "",
          "type": "address"
        }
      ],
      "stateMutability": "view",
      "type": "function"
    },
    {
      "inputs": [],
      "name": "version",
      "outputs": [
        {
          "internalType": "string",
          "name": "",
          "type": "string"
        }
      ],
      "stateMutability": "view",
      "type": "function"
    },
    {
      "stateMutability": "payable",
      "type": "receive"
    },
    {
      "inputs": [
        {
          "internalType": "string",
          "name": "_nombre",
          "type": "string"
        },
        {
          "internalType": "string",
          "name": "_email",
          "type": "string"
        }
      ],
      "name": "automatricula",
      "outputs": [],
      "stateMutability": "nonpayable",
      "type": "function"
    },
    {
      "inputs": [],
      "name": "matriculasLength",
      "outputs": [
        {
          "internalType": "uint256",
          "name": "",
          "type": "uint256"
        }
      ],
      "stateMutability": "view",
      "type": "function"
    },
    {
      "inputs": [],
      "name": "quienSoy",
      "outputs": [
        {
          "internalType": "string",
          "name": "_nombre",
          "type": "string"
        },
        {
          "internalType": "string",
          "name": "_email",
          "type": "string"
        }
      ],
      "stateMutability": "view",
      "type": "function"
    },
    {
      "inputs": [
        {
          "internalType": "string",
          "name": "_nombre",
          "type": "string"
        },
        {
          "internalType": "uint256",
          "name": "_fecha",
          "type": "uint256"
        },
        {
          "internalType": "uint256",
          "name": "_porcentaje",
          "type": "uint256"
        }
      ],
      "name": "creaEvaluacion",
      "outputs": [
        {
          "internalType": "uint256",
          "name": "",
          "type": "uint256"
        }
      ],
      "stateMutability": "nonpayable",
      "type": "function"
    },
    {
      "inputs": [],
      "name": "evaluacionesLength",
      "outputs": [
        {
          "internalType": "uint256",
          "name": "",
          "type": "uint256"
        }
      ],
      "stateMutability": "view",
      "type": "function"
    },
    {
      "inputs": [
        {
          "internalType": "address",
          "name": "alumno",
          "type": "address"
        },
        {
          "internalType": "uint256",
          "name": "evaluacion",
          "type": "uint256"
        },
        {
          "internalType": "enum Asignatura.TipoNota",
          "name": "tipo",
          "type": "uint8"
        },
        {
          "internalType": "uint256",
          "name": "calificacion",
          "type": "uint256"
        }
      ],
      "name": "califica",
      "outputs": [],
      "stateMutability": "nonpayable",
      "type": "function"
    },
    {
      "inputs": [
        {
          "internalType": "uint256",
          "name": "evaluacion",
          "type": "uint256"
        }
      ],
      "name": "miNota",
      "outputs": [
        {
          "internalType": "enum Asignatura.TipoNota",
          "name": "tipo",
          "type": "uint8"
        },
        {
          "internalType": "uint256",
          "name": "calificacion",
          "type": "uint256"
        }
      ],
      "stateMutability": "view",
      "type": "function"
    }
  ],
  "bytecode": "0x60806040526040518060400160405280600981526020017f32303232204c69746500000000000000000000000000000000000000000000008152505f9081620000499190620003d8565b5034801562000056575f80fd5b50604051620027833803806200278383398181016040528101906200007c919062000614565b5f825103620000c2576040517f08c379a0000000000000000000000000000000000000000000000000000000008152600401620000b9906200071b565b60405180910390fd5b5f81510362000108576040517f08c379a0000000000000000000000000000000000000000000000000000000008152600401620000ff90620007af565b60405180910390fd5b3360015f6101000a81548173ffffffffffffffffffffffffffffffffffffffff021916908373ffffffffffffffffffffffffffffffffffffffff1602179055508160029081620001599190620003d8565b5080600390816200016b9190620003d8565b505050620007cf565b5f81519050919050565b7f4e487b71000000000000000000000000000000000000000000000000000000005f52604160045260245ffd5b7f4e487b71000000000000000000000000000000000000000000000000000000005f52602260045260245ffd5b5f6002820490506001821680620001f057607f821691505b602082108103620002065762000205620001ab565b5b50919050565b5f819050815f5260205f209050919050565b5f6020601f8301049050919050565b5f82821b905092915050565b5f600883026200026a7fffffffffffffffffffffffffffffffffffffffffffffffffffffffffffffffff826200022d565b6200027686836200022d565b95508019841693508086168417925050509392505050565b5f819050919050565b5f819050919050565b5f620002c0620002ba620002b4846200028e565b62000297565b6200028e565b9050919050565b5f819050919050565b620002db83620002a0565b620002f3620002ea82620002c7565b84845462000239565b825550505050565b5f90565b62000309620002fb565b62000316818484620002d0565b505050565b5b818110156200033d57620003315f82620002ff565b6001810190506200031c565b5050565b601f8211156200038c5762000356816200020c565b62000361846200021e565b8101602085101562000371578190505b6200038962000380856200021e565b8301826200031b565b50505b505050565b5f82821c905092915050565b5f620003ae5f198460080262000391565b1980831691505092915050565b5f620003c883836200039d565b9150826002028217905092915050565b620003e38262000174565b67ffffffffffffffff811115620003ff57620003fe6200017e565b5b6200040b8254620001d8565b6200041882828562000341565b5f60209050601f8311600181146200044e575f841562000439578287015190505b620004458582620003bb565b865550620004b4565b601f1984166200045e866200020c565b5f5b82811015620004875784890151825560018201915060208501945060208101905062000460565b86831015620004a75784890151620004a3601f8916826200039d565b8355505b6001600288020188555050505b505050505050565b5f604051905090565b5f80fd5b5f80fd5b5f80fd5b5f80fd5b5f601f19601f8301169050919050565b620004f082620004d5565b810181811067ffffffffffffffff821117156200051257620005116200017e565b5b80604052505050565b5f62000526620004bc565b9050620005348282620004e5565b919050565b5f67ffffffffffffffff8211156200055657620005556200017e565b5b6200056182620004d5565b9050602081019050919050565b5f5b838110156200058d57808201518184015260208101905062000570565b5f8484015250505050565b5f620005ae620005a88462000539565b6200051b565b905082815260208101848484011115620005cd57620005cc620004d1565b5b620005da8482856200056e565b509392505050565b5f82601f830112620005f957620005f8620004cd565b5b81516200060b84826020860162000598565b91505092915050565b5f80604083850312156200062d576200062c620004c5565b5b5f83015167ffffffffffffffff8111156200064d576200064c620004c9565b5b6200065b85828601620005e2565b925050602083015167ffffffffffffffff8111156200067f576200067e620004c9565b5b6200068d85828601620005e2565b9150509250929050565b5f82825260208201905092915050565b7f456c206e6f6d627265206465206c6120617369676e6174757261206e6f2070755f8201527f6564652073657220766163696f00000000000000000000000000000000000000602082015250565b5f62000703602d8362000697565b91506200071082620006a7565b604082019050919050565b5f6020820190508181035f8301526200073481620006f5565b9050919050565b7f456c20637572736f2061636164656d69636f206465206c6120617369676e61745f8201527f757261206e6f2070756564652073657220766163696f00000000000000000000602082015250565b5f6200079760368362000697565b9150620007a4826200073b565b604082019050919050565b5f6020820190508181035f830152620007c88162000789565b9050919050565b611fa680620007dd5f395ff3fe6080604052600436106100eb575f3560e01c80636bf8aad611610089578063d017da1f11610058578063d017da1f14610346578063d27c3f3c14610382578063deafcc41146103bf578063df096576146103e95761012b565b80636bf8aad6146102795780639e1d8f4b146102b6578063bc7b35b2146102e0578063c79181391461030a5761012b565b8063488cf4f5116100c5578063488cf4f5146101d257806353766883146101fc57806354fd4d501461022757806361d4c6ad146102515761012b565b806330322c9b1461012f57806342a6dde21461015757806344f7a8cc146101945761012b565b3661012b576040517f08c379a000000000000000000000000000000000000000000000000000000000815260040161012290611195565b60405180910390fd5b5f80fd5b34801561013a575f80fd5b5061015560048036038101906101509190611274565b610413565b005b348015610162575f80fd5b5061017d600480360381019061017891906112d8565b61062e565b60405161018b929190611398565b60405180910390f35b34801561019f575f80fd5b506101ba60048036038101906101b591906113bf565b610665565b6040516101c993929190611464565b60405180910390f35b3480156101dd575f80fd5b506101e6610720565b6040516101f391906114a0565b60405180910390f35b348015610207575f80fd5b5061021061072c565b60405161021e9291906114b9565b60405180910390f35b348015610232575f80fd5b5061023b6108f3565b60405161024891906114ee565b60405180910390f35b34801561025c575f80fd5b506102776004803603810190610272919061163a565b61097e565b005b348015610284575f80fd5b5061029f600480360381019061029a91906116b0565b610af2565b6040516102ad9291906114b9565b60405180910390f35b3480156102c1575f80fd5b506102ca610c1e565b6040516102d791906114a0565b60405180910390f35b3480156102eb575f80fd5b506102f4610c2a565b60405161030191906114ee565b60405180910390f35b348015610315575f80fd5b50610330600480360381019061032b91906113bf565b610cb6565b60405161033d91906116ea565b60405180910390f35b348015610351575f80fd5b5061036c60048036038101906103679190611703565b610cf1565b60405161037991906114a0565b60405180910390f35b34801561038d575f80fd5b506103a860048036038101906103a391906113bf565b610e4c565b6040516103b6929190611398565b60405180910390f35b3480156103ca575f80fd5b506103d3610f8d565b6040516103e091906114ee565b60405180910390f35b3480156103f4575f80fd5b506103fd611019565b60405161040a91906116ea565b60405180910390f35b60015f9054906101000a900473ffffffffffffffffffffffffffffffffffffffff1673ffffffffffffffffffffffffffffffffffffffff163373ffffffffffffffffffffffffffffffffffffffff16146104a2576040517f08c379a0000000000000000000000000000000000000000000000000000000008152600401610499906117b9565b60405180910390fd5b6104ab8461103e565b6104ea576040517f08c379a00000000000000000000000000000000000000000000000000000000081526004016104e190611847565b60405180910390fd5b6006805490508310610531576040517f08c379a0000000000000000000000000000000000000000000000000000000008152600401610528906118d5565b60405180910390fd5b6103e8811115610576576040517f08c379a000000000000000000000000000000000000000000000000000000000815260040161056d90611989565b60405180910390fd5b5f604051806040016040528084600281111561059557610594611316565b5b81526020018381525090508060075f8773ffffffffffffffffffffffffffffffffffffffff1673ffffffffffffffffffffffffffffffffffffffff1681526020019081526020015f205f8681526020019081526020015f205f820151815f015f6101000a81548160ff0219169083600281111561061557610614611316565b5b0217905550602082015181600101559050505050505050565b6007602052815f5260405f20602052805f5260405f205f9150915050805f015f9054906101000a900460ff16908060010154905082565b60068181548110610674575f80fd5b905f5260205f2090600302015f91509050805f018054610693906119d4565b80601f01602080910402602001604051908101604052809291908181526020018280546106bf906119d4565b801561070a5780601f106106e15761010080835404028352916020019161070a565b820191905f5260205f20905b8154815290600101906020018083116106ed57829003601f168201915b5050505050908060010154908060020154905083565b5f600680549050905090565b6060806107383361103e565b610777576040517f08c379a000000000000000000000000000000000000000000000000000000000815260040161076e90611a74565b60405180910390fd5b5f60045f3373ffffffffffffffffffffffffffffffffffffffff1673ffffffffffffffffffffffffffffffffffffffff1681526020019081526020015f206040518060400160405290815f820180546107cf906119d4565b80601f01602080910402602001604051908101604052809291908181526020018280546107fb906119d4565b80156108465780601f1061081d57610100808354040283529160200191610846565b820191905f5260205f20905b81548152906001019060200180831161082957829003601f168201915b5050505050815260200160018201805461085f906119d4565b80601f016020809104026020016040519081016040528092919081815260200182805461088b906119d4565b80156108d65780601f106108ad576101008083540402835291602001916108d6565b820191905f5260205f20905b8154815290600101906020018083116108b957829003601f168201915b5050505050815250509050805f0151925080602001519150509091565b5f80546108ff906119d4565b80601f016020809104026020016040519081016040528092919081815260200182805461092b906119d4565b80156109765780601f1061094d57610100808354040283529160200191610976565b820191905f5260205f20905b81548152906001019060200180831161095957829003601f168201915b505050505081565b6109873361103e565b156109c7576040517f08c379a00000000000000000000000000000000000000000000000000000000081526004016109be90611b02565b60405180910390fd5b5f825103610a0a576040517f08c379a0000000000000000000000000000000000000000000000000000000008152600401610a0190611b6a565b60405180910390fd5b5f60405180604001604052808481526020018381525090508060045f3373ffffffffffffffffffffffffffffffffffffffff1673ffffffffffffffffffffffffffffffffffffffff1681526020019081526020015f205f820151815f019081610a739190611d25565b506020820151816001019081610a899190611d25565b50905050600533908060018154018082558091505060019003905f5260205f20015f9091909190916101000a81548173ffffffffffffffffffffffffffffffffffffffff021916908373ffffffffffffffffffffffffffffffffffffffff160217905550505050565b6004602052805f5260405f205f91509050805f018054610b11906119d4565b80601f0160208091040260200160405190810160405280929190818152602001828054610b3d906119d4565b8015610b885780601f10610b5f57610100808354040283529160200191610b88565b820191905f5260205f20905b815481529060010190602001808311610b6b57829003601f168201915b505050505090806001018054610b9d906119d4565b80601f0160208091040260200160405190810160405280929190818152602001828054610bc9906119d4565b8015610c145780601f10610beb57610100808354040283529160200191610c14565b820191905f5260205f20905b815481529060010190602001808311610bf757829003601f168201915b5050505050905082565b5f600580549050905090565b60028054610c37906119d4565b80601f0160208091040260200160405190810160405280929190818152602001828054610c63906119d4565b8015610cae5780601f10610c8557610100808354040283529160200191610cae565b820191905f5260205f20905b815481529060010190602001808311610c9157829003601f168201915b505050505081565b60058181548110610cc5575f80fd5b905f5260205f20015f915054906101000a900473ffffffffffffffffffffffffffffffffffffffff1681565b5f60015f9054906101000a900473ffffffffffffffffffffffffffffffffffffffff1673ffffffffffffffffffffffffffffffffffffffff163373ffffffffffffffffffffffffffffffffffffffff1614610d81576040517f08c379a0000000000000000000000000000000000000000000000000000000008152600401610d78906117b9565b60405180910390fd5b5f845103610dc4576040517f08c379a0000000000000000000000000000000000000000000000000000000008152600401610dbb90611e64565b60405180910390fd5b6006604051806060016040528086815260200185815260200184815250908060018154018082558091505060019003905f5260205f2090600302015f909190919091505f820151815f019081610e1a9190611d25565b50602082015181600101556040820151816002015550506001600680549050610e439190611eaf565b90509392505050565b5f80610e573361103e565b610e96576040517f08c379a0000000000000000000000000000000000000000000000000000000008152600401610e8d90611a74565b60405180910390fd5b6006805490508310610edd576040517f08c379a0000000000000000000000000000000000000000000000000000000008152600401610ed490611f52565b60405180910390fd5b5f60075f3373ffffffffffffffffffffffffffffffffffffffff1673ffffffffffffffffffffffffffffffffffffffff1681526020019081526020015f205f8581526020019081526020015f206040518060400160405290815f82015f9054906101000a900460ff166002811115610f5857610f57611316565b5b6002811115610f6a57610f69611316565b5b81526020016001820154815250509050805f015192508060200151915050915091565b60038054610f9a906119d4565b80601f0160208091040260200160405190810160405280929190818152602001828054610fc6906119d4565b80156110115780601f10610fe857610100808354040283529160200191611011565b820191905f5260205f20905b815481529060010190602001808311610ff457829003601f168201915b505050505081565b60015f9054906101000a900473ffffffffffffffffffffffffffffffffffffffff1681565b5f8060045f8473ffffffffffffffffffffffffffffffffffffffff1673ffffffffffffffffffffffffffffffffffffffff1681526020019081526020015f205f01805461108a906119d4565b80601f01602080910402602001604051908101604052809291908181526020018280546110b6906119d4565b80156111015780601f106110d857610100808354040283529160200191611101565b820191905f5260205f20905b8154815290600101906020018083116110e457829003601f168201915b505050505090505f81511415915050919050565b5f82825260208201905092915050565b7f4e6f207365207065726d697465206c6120726563657063696f6e2064652064695f8201527f6e65726f2e000000000000000000000000000000000000000000000000000000602082015250565b5f61117f602583611115565b915061118a82611125565b604082019050919050565b5f6020820190508181035f8301526111ac81611173565b9050919050565b5f604051905090565b5f80fd5b5f80fd5b5f73ffffffffffffffffffffffffffffffffffffffff82169050919050565b5f6111ed826111c4565b9050919050565b6111fd816111e3565b8114611207575f80fd5b50565b5f81359050611218816111f4565b92915050565b5f819050919050565b6112308161121e565b811461123a575f80fd5b50565b5f8135905061124b81611227565b92915050565b6003811061125d575f80fd5b50565b5f8135905061126e81611251565b92915050565b5f805f806080858703121561128c5761128b6111bc565b5b5f6112998782880161120a565b94505060206112aa8782880161123d565b93505060406112bb87828801611260565b92505060606112cc8782880161123d565b91505092959194509250565b5f80604083850312156112ee576112ed6111bc565b5b5f6112fb8582860161120a565b925050602061130c8582860161123d565b9150509250929050565b7f4e487b71000000000000000000000000000000000000000000000000000000005f52602160045260245ffd5b6003811061135457611353611316565b5b50565b5f81905061136482611343565b919050565b5f61137382611357565b9050919050565b61138381611369565b82525050565b6113928161121e565b82525050565b5f6040820190506113ab5f83018561137a565b6113b86020830184611389565b9392505050565b5f602082840312156113d4576113d36111bc565b5b5f6113e18482850161123d565b91505092915050565b5f81519050919050565b5f5b838110156114115780820151818401526020810190506113f6565b5f8484015250505050565b5f601f19601f8301169050919050565b5f611436826113ea565b6114408185611115565b93506114508185602086016113f4565b6114598161141c565b840191505092915050565b5f6060820190508181035f83015261147c818661142c565b905061148b6020830185611389565b6114986040830184611389565b949350505050565b5f6020820190506114b35f830184611389565b92915050565b5f6040820190508181035f8301526114d1818561142c565b905081810360208301526114e5818461142c565b90509392505050565b5f6020820190508181035f830152611506818461142c565b905092915050565b5f80fd5b5f80fd5b7f4e487b71000000000000000000000000000000000000000000000000000000005f52604160045260245ffd5b61154c8261141c565b810181811067ffffffffffffffff8211171561156b5761156a611516565b5b80604052505050565b5f61157d6111b3565b90506115898282611543565b919050565b5f67ffffffffffffffff8211156115a8576115a7611516565b5b6115b18261141c565b9050602081019050919050565b828183375f83830152505050565b5f6115de6115d98461158e565b611574565b9050828152602081018484840111156115fa576115f9611512565b5b6116058482856115be565b509392505050565b5f82601f8301126116215761162061150e565b5b81356116318482602086016115cc565b91505092915050565b5f80604083850312156116505761164f6111bc565b5b5f83013567ffffffffffffffff81111561166d5761166c6111c0565b5b6116798582860161160d565b925050602083013567ffffffffffffffff81111561169a576116996111c0565b5b6116a68582860161160d565b9150509250929050565b5f602082840312156116c5576116c46111bc565b5b5f6116d28482850161120a565b91505092915050565b6116e4816111e3565b82525050565b5f6020820190506116fd5f8301846116db565b92915050565b5f805f6060848603121561171a576117196111bc565b5b5f84013567ffffffffffffffff811115611737576117366111c0565b5b6117438682870161160d565b93505060206117548682870161123d565b92505060406117658682870161123d565b9150509250925092565b7f536f6c6f207065726d697469646f20616c2070726f6665736f720000000000005f82015250565b5f6117a3601a83611115565b91506117ae8261176f565b602082019050919050565b5f6020820190508181035f8301526117d081611797565b9050919050565b7f536f6c6f2073652070756564656e2063616c696669636172206120756e20616c5f8201527f756d6e6f206d6174726963756c61646f2e000000000000000000000000000000602082015250565b5f611831603183611115565b915061183c826117d7565b604082019050919050565b5f6020820190508181035f83015261185e81611825565b9050919050565b7f4e6f2073652070756564652063616c69666963617220756e61206576616c75615f8201527f63696f6e20717565206e6f206578697374652e00000000000000000000000000602082015250565b5f6118bf603383611115565b91506118ca82611865565b604082019050919050565b5f6020820190508181035f8301526118ec816118b3565b9050919050565b7f4e6f2073652070756564652063616c69666963617220636f6e20756e61206e6f5f8201527f7461207375706572696f722061206c61206d6178696d61207065726d6974696460208201527f612e000000000000000000000000000000000000000000000000000000000000604082015250565b5f611973604283611115565b915061197e826118f3565b606082019050919050565b5f6020820190508181035f8301526119a081611967565b9050919050565b7f4e487b71000000000000000000000000000000000000000000000000000000005f52602260045260245ffd5b5f60028204905060018216806119eb57607f821691505b6020821081036119fe576119fd6119a7565b5b50919050565b7f536f6c6f207065726d697469646f206120616c756d6e6f73206d6174726963755f8201527f6c61646f73000000000000000000000000000000000000000000000000000000602082015250565b5f611a5e602583611115565b9150611a6982611a04565b604082019050919050565b5f6020820190508181035f830152611a8b81611a52565b9050919050565b7f536f6c6f207065726d697469646f206120616c756d6e6f73206e6f206d6174725f8201527f6963756c61646f73000000000000000000000000000000000000000000000000602082015250565b5f611aec602883611115565b9150611af782611a92565b604082019050919050565b5f6020820190508181035f830152611b1981611ae0565b9050919050565b7f456c206e6f6d627265206e6f2070756564652073657220766163696f000000005f82015250565b5f611b54601c83611115565b9150611b5f82611b20565b602082019050919050565b5f6020820190508181035f830152611b8181611b48565b9050919050565b5f819050815f5260205f209050919050565b5f6020601f8301049050919050565b5f82821b905092915050565b5f60088302611be47fffffffffffffffffffffffffffffffffffffffffffffffffffffffffffffffff82611ba9565b611bee8683611ba9565b95508019841693508086168417925050509392505050565b5f819050919050565b5f611c29611c24611c1f8461121e565b611c06565b61121e565b9050919050565b5f819050919050565b611c4283611c0f565b611c56611c4e82611c30565b848454611bb5565b825550505050565b5f90565b611c6a611c5e565b611c75818484611c39565b505050565b5b81811015611c9857611c8d5f82611c62565b600181019050611c7b565b5050565b601f821115611cdd57611cae81611b88565b611cb784611b9a565b81016020851015611cc6578190505b611cda611cd285611b9a565b830182611c7a565b50505b505050565b5f82821c905092915050565b5f611cfd5f1984600802611ce2565b1980831691505092915050565b5f611d158383611cee565b9150826002028217905092915050565b611d2e826113ea565b67ffffffffffffffff811115611d4757611d46611516565b5b611d5182546119d4565b611d5c828285611c9c565b5f60209050601f831160018114611d8d575f8415611d7b578287015190505b611d858582611d0a565b865550611dec565b601f198416611d9b86611b88565b5f5b82811015611dc257848901518255600182019150602085019450602081019050611d9d565b86831015611ddf5784890151611ddb601f891682611cee565b8355505b6001600288020188555050505b505050505050565b7f456c206e6f6d627265206465206c61206576616c756163696f6e206e6f2070755f8201527f6564652073657220766163696f00000000000000000000000000000000000000602082015250565b5f611e4e602d83611115565b9150611e5982611df4565b604082019050919050565b5f6020820190508181035f830152611e7b81611e42565b9050919050565b7f4e487b71000000000000000000000000000000000000000000000000000000005f52601160045260245ffd5b5f611eb98261121e565b9150611ec48361121e565b9250828203905081811115611edc57611edb611e82565b5b92915050565b7f456c20696e64696365206465206c61206576616c756163696f6e206e6f2065785f8201527f697374652e000000000000000000000000000000000000000000000000000000602082015250565b5f611f3c602583611115565b9150611f4782611ee2565b604082019050919050565b5f6020820190508181035f830152611f6981611f30565b905091905056fea2646970667358221220423962335fc9eba31deedc8fabb06a2769bbf95d94b6dd4c7cd6cab53d39dc3264736f6c63430008150033",
  "immutableReferences": {},
  "source": "// SPDX-License-Identifier: UNLICENSED\npragma solidity ^0.8.16;\n\n/**\n *  El contrato Asignatura que representa una asignatura de la carrera.\n *\n * Version Lite - Practicas\n */\n\ncontract Asignatura {\n    /// Version 2022 Lite - Teoria\n    string public version = \"2022 Lite\";\n\n    /**\n     * address del profesor que ha desplegado el contrato.\n     * El contrato lo despliega el profesor.\n     */\n    address public profesor;\n\n    /// Nombre de la asignatura\n    string public nombre;\n\n    /// Curso academico\n    string public curso;\n\n    /// Datos de un alumno.\n    struct DatosAlumno {\n        string nombre;\n        string email;\n    }\n\n    /// Acceder a los datos de un alumno dada su direccion.\n    mapping(address => DatosAlumno) public datosAlumno;\n\n    // Array con las direcciones de los alumnos matriculados.\n    address[] public matriculas;\n\n    /**\n     * Datos de una evaluacion.\n     */\n    struct Evaluacion {\n        string nombre;\n        uint fecha;\n        uint porcentaje;\n    }\n\n    /// Evaluaciones de la asignatura.\n    Evaluacion[] public evaluaciones;\n\n    /// Tipos de notas: sin usar, no presentado, y nota normal entre 0 y 1000.\n    enum TipoNota {\n        Empty,\n        NP,\n        Normal\n    }\n\n    /**\n     * Datos de una nota.\n     * La calificacion esta multiplicada por 100 porque no hay decimales.\n     */\n    struct Nota {\n        TipoNota tipo;\n        uint calificacion;\n    }\n\n    // Dada la direccion de un alumno, y el indice de la evaluacion, devuelve\n    // la nota del alumno.\n    mapping(address => mapping(uint => Nota)) public calificaciones;\n\n    /**\n     * Constructor.\n     *\n     * @param _nombre Nombre de la asignatura.\n     * @param _curso  Curso academico.\n     */\n    constructor(string memory _nombre, string memory _curso) {\n        require(\n            bytes(_nombre).length != 0,\n            \"El nombre de la asignatura no puede ser vacio\"\n        );\n        require(\n            bytes(_curso).length != 0,\n            \"El curso academico de la asignatura no puede ser vacio\"\n        );\n\n        profesor = msg.sender;\n        nombre = _nombre;\n        curso = _curso;\n    }\n\n    /**\n     * Los alumnos pueden automatricularse con el metodo automatricula.\n     *\n     * Impedir que se pueda meter un nombre vacio.\n     *\n     * @param _nombre El nombre del alumno.\n     * @param _email  El email del alumno.\n     */\n    function automatricula(\n        string memory _nombre,\n        string memory _email\n    ) public soloNoMatriculados {\n        require(bytes(_nombre).length != 0, \"El nombre no puede ser vacio\");\n\n        DatosAlumno memory datos = DatosAlumno(_nombre, _email);\n\n        datosAlumno[msg.sender] = datos;\n\n        matriculas.push(msg.sender);\n    }\n\n    /**\n     * El numero de alumnos matriculados.\n     *\n     * @return El numero de alumnos matriculados.\n     */\n    function matriculasLength() public view returns (uint) {\n        return matriculas.length;\n    }\n\n    /**\n     * Permite a un alumno obtener sus propios datos.\n     *\n     * @return _nombre El nombre del alumno que invoca el metodo.\n     * @return _email  El email del alumno que invoca el metodo.\n     */\n    function quienSoy()\n        public\n        view\n        soloMatriculados\n        returns (string memory _nombre, string memory _email)\n    {\n        DatosAlumno memory datos = datosAlumno[msg.sender];\n        _nombre = datos.nombre;\n        _email = datos.email;\n    }\n\n    /**\n     * Crear una prueba de evaluacion de la asignatura. Por ejemplo, el primer parcial, o la practica 3.\n     *\n     * Las evaluaciones se meteran en el array evaluaciones, y nos referiremos a ellas por su posicion en el array.\n     *\n     * @param _nombre El nombre de la evaluacion.\n     * @param _fecha  La fecha de evaluacion (segundos desde el 1/1/1970).\n     * @param _porcentaje El porcentaje de puntos que proporciona a la nota final.\n     *\n     * @return La posicion en el array evaluaciones,\n     */\n    function creaEvaluacion(\n        string memory _nombre,\n        uint _fecha,\n        uint _porcentaje\n    ) public soloProfesor returns (uint) {\n        require(\n            bytes(_nombre).length != 0,\n            \"El nombre de la evaluacion no puede ser vacio\"\n        );\n\n        evaluaciones.push(Evaluacion(_nombre, _fecha, _porcentaje));\n        return evaluaciones.length - 1;\n    }\n\n    /**\n     * El numero de evaluaciones creadas.\n     *\n     * @return El numero de evaluaciones creadas.\n     */\n    function evaluacionesLength() public view returns (uint) {\n        return evaluaciones.length;\n    }\n\n    /**\n     * Poner la nota de un alumno en una evaluacion.\n     *\n     * @param alumno        La direccion del alumno.\n     * @param evaluacion    El indice de una evaluacion en el array evaluaciones.\n     * @param tipo          Tipo de nota.\n     * @param calificacion  La calificacion, multipilicada por 100 porque no hay decimales.\n     */\n    function califica(\n        address alumno,\n        uint evaluacion,\n        TipoNota tipo,\n        uint calificacion\n    ) public soloProfesor {\n        require(\n            estaMatriculado(alumno),\n            \"Solo se pueden calificar a un alumno matriculado.\"\n        );\n        require(\n            evaluacion < evaluaciones.length,\n            \"No se puede calificar una evaluacion que no existe.\"\n        );\n        require(\n            calificacion <= 1000,\n            \"No se puede calificar con una nota superior a la maxima permitida.\"\n        );\n\n        Nota memory nota = Nota(tipo, calificacion);\n\n        calificaciones[alumno][evaluacion] = nota;\n    }\n\n    /**\n     * Devuelve el tipo de nota y la calificacion que ha sacado el alumno que invoca el metodo en la evaluacion pasada como parametro.\n     *\n     * @param evaluacion Indice de una evaluacion en el array de evaluaciones.\n     *\n     * @return tipo         El tipo de nota que ha sacado el alumno.\n     * @return calificacion La calificacion que ha sacado el alumno.\n     */\n    function miNota(\n        uint evaluacion\n    ) public view soloMatriculados returns (TipoNota tipo, uint calificacion) {\n        require(\n            evaluacion < evaluaciones.length,\n            \"El indice de la evaluacion no existe.\"\n        );\n\n        Nota memory nota = calificaciones[msg.sender][evaluacion];\n\n        tipo = nota.tipo;\n        calificacion = nota.calificacion;\n    }\n\n    /**\n     * Consulta si una direccion pertenece a un alumno matriculado.\n     *\n     * @param alumno La direccion de un alumno.\n     *\n     * @return true si es una alumno matriculado.\n     */\n    function estaMatriculado(address alumno) private view returns (bool) {\n        string memory _nombre = datosAlumno[alumno].nombre;\n\n        return bytes(_nombre).length != 0;\n    }\n\n    /**\n     * Modificador para que una funcion solo la pueda ejecutar el profesor.\n     *\n     * Se usa en creaEvaluacion y en califica.\n     */\n    modifier soloProfesor() {\n        require(msg.sender == profesor, \"Solo permitido al profesor\");\n        _;\n    }\n\n    /**\n     * Modificador para que una funcion solo la pueda ejecutar un alumno matriculado.\n     */\n    modifier soloMatriculados() {\n        require(\n            estaMatriculado(msg.sender),\n            \"Solo permitido a alumnos matriculados\"\n        );\n        _;\n    }\n\n    /**\n     * Modificador para que una funcion solo la pueda ejecutar un alumno no matriculado aun.\n     */\n    modifier soloNoMatriculados() {\n        require(\n            !estaMatriculado(msg.sender),\n            \"Solo permitido a alumnos no matriculados\"\n        );\n        _;\n    }\n\n    /**\n     * No se permite la recepcion de dinero.\n     */\n    receive() external payable {\n        revert(\"No se permite la recepcion de dinero.\");\n    }\n}\n",
  "sourcePath": "/Users/apabook/Desktop/bc/contracts/AsignaturaLite.sol",
  "compiler": {
    "name": "solc",
    "version": "0.8.21+commit.d9974bed.Emscripten.clang"
  },
  "schemaVersion": "3.4.16",
  "updatedAt": "2023-10-29T19:17:01.996Z",
  "devdoc": {
    "kind": "dev",
    "methods": {
      "automatricula(string,string)": {
        "params": {
          "_email": "El email del alumno.",
          "_nombre": "El nombre del alumno."
        }
      },
      "califica(address,uint256,uint8,uint256)": {
        "params": {
          "alumno": "La direccion del alumno.",
          "calificacion": "La calificacion, multipilicada por 100 porque no hay decimales.",
          "evaluacion": "El indice de una evaluacion en el array evaluaciones.",
          "tipo": "Tipo de nota."
        }
      },
      "constructor": {
        "params": {
          "_curso": "Curso academico.",
          "_nombre": "Nombre de la asignatura."
        }
      },
      "creaEvaluacion(string,uint256,uint256)": {
        "params": {
          "_fecha": "La fecha de evaluacion (segundos desde el 1/1/1970).",
          "_nombre": "El nombre de la evaluacion.",
          "_porcentaje": "El porcentaje de puntos que proporciona a la nota final."
        },
        "returns": {
          "_0": "La posicion en el array evaluaciones,"
        }
      },
      "evaluacionesLength()": {
        "returns": {
          "_0": "El numero de evaluaciones creadas."
        }
      },
      "matriculasLength()": {
        "returns": {
          "_0": "El numero de alumnos matriculados."
        }
      },
      "miNota(uint256)": {
        "params": {
          "evaluacion": "Indice de una evaluacion en el array de evaluaciones."
        },
        "returns": {
          "calificacion": "La calificacion que ha sacado el alumno.",
          "tipo": "        El tipo de nota que ha sacado el alumno."
        }
      },
      "quienSoy()": {
        "returns": {
          "_email": " El email del alumno que invoca el metodo.",
          "_nombre": "El nombre del alumno que invoca el metodo."
        }
      }
    },
    "version": 1
  },
  "userdoc": {
    "kind": "user",
    "methods": {
      "automatricula(string,string)": {
        "notice": "Los alumnos pueden automatricularse con el metodo automatricula. Impedir que se pueda meter un nombre vacio."
      },
      "califica(address,uint256,uint8,uint256)": {
        "notice": "Poner la nota de un alumno en una evaluacion."
      },
      "constructor": {
        "notice": "Constructor."
      },
      "creaEvaluacion(string,uint256,uint256)": {
        "notice": "Crear una prueba de evaluacion de la asignatura. Por ejemplo, el primer parcial, o la practica 3. Las evaluaciones se meteran en el array evaluaciones, y nos referiremos a ellas por su posicion en el array."
      },
      "curso()": {
        "notice": "Curso academico"
      },
      "datosAlumno(address)": {
        "notice": "Acceder a los datos de un alumno dada su direccion."
      },
      "evaluaciones(uint256)": {
        "notice": "Evaluaciones de la asignatura."
      },
      "evaluacionesLength()": {
        "notice": "El numero de evaluaciones creadas."
      },
      "matriculasLength()": {
        "notice": "El numero de alumnos matriculados."
      },
      "miNota(uint256)": {
        "notice": "Devuelve el tipo de nota y la calificacion que ha sacado el alumno que invoca el metodo en la evaluacion pasada como parametro."
      },
      "nombre()": {
        "notice": "Nombre de la asignatura"
      },
      "profesor()": {
        "notice": "address del profesor que ha desplegado el contrato. El contrato lo despliega el profesor."
      },
      "quienSoy()": {
        "notice": "Permite a un alumno obtener sus propios datos."
      },
      "version()": {
        "notice": "Version 2022 Lite - Teoria"
      }
    },
    "notice": "El contrato Asignatura que representa una asignatura de la carrera. Version Lite - Practicas",
    "version": 1
  }
}