{
  "contractName": "AsignaturaLite",
  "abi": [
    {
      "inputs": [
        {
          "internalType": "string",
          "name": "_nombre",
          "type": "string"
        },
        {
          "internalType": "string",
          "name": "_curso",
          "type": "string"
        }
      ],
      "stateMutability": "nonpayable",
      "type": "constructor"
    },
    {
      "inputs": [
        {
          "internalType": "address",
          "name": "",
          "type": "address"
        },
        {
          "internalType": "uint256",
          "name": "",
          "type": "uint256"
        }
      ],
      "name": "calificaciones",
      "outputs": [
        {
          "internalType": "enum AsignaturaLite.TipoNota",
          "name": "tipo",
          "type": "uint8"
        },
        {
          "internalType": "uint256",
          "name": "calificacion",
          "type": "uint256"
        }
      ],
      "stateMutability": "view",
      "type": "function"
    },
    {
      "inputs": [],
      "name": "cerrada",
      "outputs": [
        {
          "internalType": "bool",
          "name": "",
          "type": "bool"
        }
      ],
      "stateMutability": "view",
      "type": "function"
    },
    {
      "inputs": [],
      "name": "coordinador",
      "outputs": [
        {
          "internalType": "address",
          "name": "",
          "type": "address"
        }
      ],
      "stateMutability": "view",
      "type": "function"
    },
    {
      "inputs": [],
      "name": "curso",
      "outputs": [
        {
          "internalType": "string",
          "name": "",
          "type": "string"
        }
      ],
      "stateMutability": "view",
      "type": "function"
    },
    {
      "inputs": [
        {
          "internalType": "address",
          "name": "",
          "type": "address"
        }
      ],
      "name": "datosAlumno",
      "outputs": [
        {
          "internalType": "string",
          "name": "nombre",
          "type": "string"
        },
        {
          "internalType": "string",
          "name": "email",
          "type": "string"
        }
      ],
      "stateMutability": "view",
      "type": "function"
    },
    {
      "inputs": [
        {
          "internalType": "uint256",
          "name": "",
          "type": "uint256"
        }
      ],
      "name": "evaluaciones",
      "outputs": [
        {
          "internalType": "string",
          "name": "nombre",
          "type": "string"
        },
        {
          "internalType": "uint256",
          "name": "fecha",
          "type": "uint256"
        },
        {
          "internalType": "uint256",
          "name": "porcentaje",
          "type": "uint256"
        }
      ],
      "stateMutability": "view",
      "type": "function"
    },
    {
      "inputs": [
        {
          "internalType": "uint256",
          "name": "",
          "type": "uint256"
        }
      ],
      "name": "matriculas",
      "outputs": [
        {
          "internalType": "address",
          "name": "",
          "type": "address"
        }
      ],
      "stateMutability": "view",
      "type": "function"
    },
    {
      "inputs": [],
      "name": "nombre",
      "outputs": [
        {
          "internalType": "string",
          "name": "",
          "type": "string"
        }
      ],
      "stateMutability": "view",
      "type": "function"
    },
    {
      "inputs": [],
      "name": "owner",
      "outputs": [
        {
          "internalType": "address",
          "name": "",
          "type": "address"
        }
      ],
      "stateMutability": "view",
      "type": "function"
    },
    {
      "inputs": [],
      "name": "profesor",
      "outputs": [
        {
          "internalType": "address",
          "name": "",
          "type": "address"
        }
      ],
      "stateMutability": "view",
      "type": "function"
    },
    {
      "inputs": [
        {
          "internalType": "address",
          "name": "",
          "type": "address"
        }
      ],
      "name": "profesores",
      "outputs": [
        {
          "internalType": "string",
          "name": "",
          "type": "string"
        }
      ],
      "stateMutability": "view",
      "type": "function"
    },
    {
      "inputs": [],
      "name": "version",
      "outputs": [
        {
          "internalType": "string",
          "name": "",
          "type": "string"
        }
      ],
      "stateMutability": "view",
      "type": "function"
    },
    {
      "stateMutability": "payable",
      "type": "receive"
    },
    {
      "inputs": [
        {
          "internalType": "address",
          "name": "coordinador_",
          "type": "address"
        }
      ],
      "name": "setCoordinador",
      "outputs": [],
      "stateMutability": "nonpayable",
      "type": "function"
    },
    {
      "inputs": [
        {
          "internalType": "string",
          "name": "_nombre",
          "type": "string"
        },
        {
          "internalType": "string",
          "name": "_email",
          "type": "string"
        }
      ],
      "name": "automatricula",
      "outputs": [],
      "stateMutability": "nonpayable",
      "type": "function"
    },
    {
      "inputs": [],
      "name": "matriculasLength",
      "outputs": [
        {
          "internalType": "uint256",
          "name": "",
          "type": "uint256"
        }
      ],
      "stateMutability": "view",
      "type": "function"
    },
    {
      "inputs": [],
      "name": "quienSoy",
      "outputs": [
        {
          "internalType": "string",
          "name": "_nombre",
          "type": "string"
        },
        {
          "internalType": "string",
          "name": "_email",
          "type": "string"
        }
      ],
      "stateMutability": "view",
      "type": "function"
    },
    {
      "inputs": [
        {
          "internalType": "string",
          "name": "_nombre",
          "type": "string"
        },
        {
          "internalType": "uint256",
          "name": "_fecha",
          "type": "uint256"
        },
        {
          "internalType": "uint256",
          "name": "_porcentaje",
          "type": "uint256"
        }
      ],
      "name": "creaEvaluacion",
      "outputs": [
        {
          "internalType": "uint256",
          "name": "",
          "type": "uint256"
        }
      ],
      "stateMutability": "nonpayable",
      "type": "function"
    },
    {
      "inputs": [],
      "name": "evaluacionesLength",
      "outputs": [
        {
          "internalType": "uint256",
          "name": "",
          "type": "uint256"
        }
      ],
      "stateMutability": "view",
      "type": "function"
    },
    {
      "inputs": [
        {
          "internalType": "address",
          "name": "alumno",
          "type": "address"
        },
        {
          "internalType": "uint256",
          "name": "evaluacion",
          "type": "uint256"
        },
        {
          "internalType": "enum AsignaturaLite.TipoNota",
          "name": "tipo",
          "type": "uint8"
        },
        {
          "internalType": "uint256",
          "name": "calificacion",
          "type": "uint256"
        }
      ],
      "name": "califica",
      "outputs": [],
      "stateMutability": "nonpayable",
      "type": "function"
    },
    {
      "inputs": [
        {
          "internalType": "uint256",
          "name": "evaluacion",
          "type": "uint256"
        }
      ],
      "name": "miNota",
      "outputs": [
        {
          "internalType": "enum AsignaturaLite.TipoNota",
          "name": "tipo",
          "type": "uint8"
        },
        {
          "internalType": "uint256",
          "name": "calificacion",
          "type": "uint256"
        }
      ],
      "stateMutability": "view",
      "type": "function"
    },
    {
      "inputs": [],
      "name": "cerrar",
      "outputs": [],
      "stateMutability": "nonpayable",
      "type": "function"
    }
  ],
  "bytecode": "0x60a06040526040518060400160405280600981526020017f32303232204c69746500000000000000000000000000000000000000000000008152505f90816200004991906200040c565b5034801562000056575f80fd5b5060405162002cac38038062002cac83398181016040528101906200007c919062000648565b5f825103620000c2576040517f08c379a0000000000000000000000000000000000000000000000000000000008152600401620000b9906200074f565b60405180910390fd5b5f81510362000108576040517f08c379a0000000000000000000000000000000000000000000000000000000008152600401620000ff90620007e3565b60405180910390fd5b3360015f6101000a81548173ffffffffffffffffffffffffffffffffffffffff021916908373ffffffffffffffffffffffffffffffffffffffff16021790555081600290816200015991906200040c565b5080600390816200016b91906200040c565b503373ffffffffffffffffffffffffffffffffffffffff1660808173ffffffffffffffffffffffffffffffffffffffff1681525050505062000803565b5f81519050919050565b7f4e487b71000000000000000000000000000000000000000000000000000000005f52604160045260245ffd5b7f4e487b71000000000000000000000000000000000000000000000000000000005f52602260045260245ffd5b5f60028204905060018216806200022457607f821691505b6020821081036200023a5762000239620001df565b5b50919050565b5f819050815f5260205f209050919050565b5f6020601f8301049050919050565b5f82821b905092915050565b5f600883026200029e7fffffffffffffffffffffffffffffffffffffffffffffffffffffffffffffffff8262000261565b620002aa868362000261565b95508019841693508086168417925050509392505050565b5f819050919050565b5f819050919050565b5f620002f4620002ee620002e884620002c2565b620002cb565b620002c2565b9050919050565b5f819050919050565b6200030f83620002d4565b620003276200031e82620002fb565b8484546200026d565b825550505050565b5f90565b6200033d6200032f565b6200034a81848462000304565b505050565b5b818110156200037157620003655f8262000333565b60018101905062000350565b5050565b601f821115620003c0576200038a8162000240565b620003958462000252565b81016020851015620003a5578190505b620003bd620003b48562000252565b8301826200034f565b50505b505050565b5f82821c905092915050565b5f620003e25f1984600802620003c5565b1980831691505092915050565b5f620003fc8383620003d1565b9150826002028217905092915050565b6200041782620001a8565b67ffffffffffffffff811115620004335762000432620001b2565b5b6200043f82546200020c565b6200044c82828562000375565b5f60209050601f83116001811462000482575f84156200046d578287015190505b620004798582620003ef565b865550620004e8565b601f198416620004928662000240565b5f5b82811015620004bb5784890151825560018201915060208501945060208101905062000494565b86831015620004db5784890151620004d7601f891682620003d1565b8355505b6001600288020188555050505b505050505050565b5f604051905090565b5f80fd5b5f80fd5b5f80fd5b5f80fd5b5f601f19601f8301169050919050565b620005248262000509565b810181811067ffffffffffffffff82111715620005465762000545620001b2565b5b80604052505050565b5f6200055a620004f0565b905062000568828262000519565b919050565b5f67ffffffffffffffff8211156200058a5762000589620001b2565b5b620005958262000509565b9050602081019050919050565b5f5b83811015620005c1578082015181840152602081019050620005a4565b5f8484015250505050565b5f620005e2620005dc846200056d565b6200054f565b90508281526020810184848401111562000601576200060062000505565b5b6200060e848285620005a2565b509392505050565b5f82601f8301126200062d576200062c62000501565b5b81516200063f848260208601620005cc565b91505092915050565b5f8060408385031215620006615762000660620004f9565b5b5f83015167ffffffffffffffff811115620006815762000680620004fd565b5b6200068f8582860162000616565b925050602083015167ffffffffffffffff811115620006b357620006b2620004fd565b5b620006c18582860162000616565b9150509250929050565b5f82825260208201905092915050565b7f456c206e6f6d627265206465206c6120617369676e6174757261206e6f2070755f8201527f6564652073657220766163696f00000000000000000000000000000000000000602082015250565b5f62000737602d83620006cb565b91506200074482620006db565b604082019050919050565b5f6020820190508181035f830152620007688162000729565b9050919050565b7f456c20637572736f2061636164656d69636f206465206c6120617369676e61745f8201527f757261206e6f2070756564652073657220766163696f00000000000000000000602082015250565b5f620007cb603683620006cb565b9150620007d8826200076f565b604082019050919050565b5f6020820190508181035f830152620007fc81620007bd565b9050919050565b6080516124906200081c5f395f610e2f01526124905ff3fe60806040526004361061012d575f3560e01c80638da5cb5b116100aa578063d27c3f3c1161006e578063d27c3f3c14610442578063d51b45841461047f578063dab6ff28146104a7578063deafcc41146104bd578063df096576146104e7578063eab1ad17146105115761016d565b80638da5cb5b1461034c5780639e1d8f4b14610376578063bc7b35b2146103a0578063c7918139146103ca578063d017da1f146104065761016d565b806353766883116100f1578063537668831461026857806354fd4d501461029357806361d4c6ad146102bd5780636bf8aad6146102e55780637810ff1e146103225761016d565b806322c4e3941461017157806330322c9b1461019b57806342a6dde2146101c357806344f7a8cc14610200578063488cf4f51461023e5761016d565b3661016d576040517f08c379a000000000000000000000000000000000000000000000000000000000815260040161016490611530565b60405180910390fd5b5f80fd5b34801561017c575f80fd5b5061018561054d565b6040516101929190611568565b60405180910390f35b3480156101a6575f80fd5b506101c160048036038101906101bc9190611642565b61055f565b005b3480156101ce575f80fd5b506101e960048036038101906101e491906116a6565b6107c9565b6040516101f7929190611766565b60405180910390f35b34801561020b575f80fd5b506102266004803603810190610221919061178d565b610800565b60405161023593929190611832565b60405180910390f35b348015610249575f80fd5b506102526108bb565b60405161025f919061186e565b60405180910390f35b348015610273575f80fd5b5061027c6108c7565b60405161028a929190611887565b60405180910390f35b34801561029e575f80fd5b506102a7610a8e565b6040516102b491906118bc565b60405180910390f35b3480156102c8575f80fd5b506102e360048036038101906102de9190611a08565b610b19565b005b3480156102f0575f80fd5b5061030b60048036038101906103069190611a7e565b610cdc565b604051610319929190611887565b60405180910390f35b34801561032d575f80fd5b50610336610e08565b6040516103439190611ab8565b60405180910390f35b348015610357575f80fd5b50610360610e2d565b60405161036d9190611ab8565b60405180910390f35b348015610381575f80fd5b5061038a610e51565b604051610397919061186e565b60405180910390f35b3480156103ab575f80fd5b506103b4610e5d565b6040516103c191906118bc565b60405180910390f35b3480156103d5575f80fd5b506103f060048036038101906103eb919061178d565b610ee9565b6040516103fd9190611ab8565b60405180910390f35b348015610411575f80fd5b5061042c60048036038101906104279190611ad1565b610f24565b604051610439919061186e565b60405180910390f35b34801561044d575f80fd5b506104686004803603810190610463919061178d565b61107f565b604051610476929190611766565b60405180910390f35b34801561048a575f80fd5b506104a560048036038101906104a09190611a7e565b6111c0565b005b3480156104b2575f80fd5b506104bb611271565b005b3480156104c8575f80fd5b506104d161128d565b6040516104de91906118bc565b60405180910390f35b3480156104f2575f80fd5b506104fb611319565b6040516105089190611ab8565b60405180910390f35b34801561051c575f80fd5b5061053760048036038101906105329190611a7e565b61133e565b60405161054491906118bc565b60405180910390f35b60045f9054906101000a900460ff1681565b60015f9054906101000a900473ffffffffffffffffffffffffffffffffffffffff1673ffffffffffffffffffffffffffffffffffffffff163373ffffffffffffffffffffffffffffffffffffffff16146105ee576040517f08c379a00000000000000000000000000000000000000000000000000000000081526004016105e590611b87565b60405180910390fd5b60045f9054906101000a900460ff161561063d576040517f08c379a000000000000000000000000000000000000000000000000000000000815260040161063490611c15565b60405180910390fd5b610646846113d9565b610685576040517f08c379a000000000000000000000000000000000000000000000000000000000815260040161067c90611ca3565b60405180910390fd5b60098054905083106106cc576040517f08c379a00000000000000000000000000000000000000000000000000000000081526004016106c390611d31565b60405180910390fd5b6103e8811115610711576040517f08c379a000000000000000000000000000000000000000000000000000000000815260040161070890611de5565b60405180910390fd5b5f60405180604001604052808460028111156107305761072f6116e4565b5b815260200183815250905080600a5f8773ffffffffffffffffffffffffffffffffffffffff1673ffffffffffffffffffffffffffffffffffffffff1681526020019081526020015f205f8681526020019081526020015f205f820151815f015f6101000a81548160ff021916908360028111156107b0576107af6116e4565b5b0217905550602082015181600101559050505050505050565b600a602052815f5260405f20602052805f5260405f205f9150915050805f015f9054906101000a900460ff16908060010154905082565b6009818154811061080f575f80fd5b905f5260205f2090600302015f91509050805f01805461082e90611e30565b80601f016020809104026020016040519081016040528092919081815260200182805461085a90611e30565b80156108a55780601f1061087c576101008083540402835291602001916108a5565b820191905f5260205f20905b81548152906001019060200180831161088857829003601f168201915b5050505050908060010154908060020154905083565b5f600980549050905090565b6060806108d3336113d9565b610912576040517f08c379a000000000000000000000000000000000000000000000000000000000815260040161090990611ed0565b60405180910390fd5b5f60055f3373ffffffffffffffffffffffffffffffffffffffff1673ffffffffffffffffffffffffffffffffffffffff1681526020019081526020015f206040518060400160405290815f8201805461096a90611e30565b80601f016020809104026020016040519081016040528092919081815260200182805461099690611e30565b80156109e15780601f106109b8576101008083540402835291602001916109e1565b820191905f5260205f20905b8154815290600101906020018083116109c457829003601f168201915b505050505081526020016001820180546109fa90611e30565b80601f0160208091040260200160405190810160405280929190818152602001828054610a2690611e30565b8015610a715780601f10610a4857610100808354040283529160200191610a71565b820191905f5260205f20905b815481529060010190602001808311610a5457829003601f168201915b5050505050815250509050805f0151925080602001519150509091565b5f8054610a9a90611e30565b80601f0160208091040260200160405190810160405280929190818152602001828054610ac690611e30565b8015610b115780601f10610ae857610100808354040283529160200191610b11565b820191905f5260205f20905b815481529060010190602001808311610af457829003601f168201915b505050505081565b610b22336113d9565b15610b62576040517f08c379a0000000000000000000000000000000000000000000000000000000008152600401610b5990611f5e565b60405180910390fd5b60045f9054906101000a900460ff1615610bb1576040517f08c379a0000000000000000000000000000000000000000000000000000000008152600401610ba890611c15565b60405180910390fd5b5f825103610bf4576040517f08c379a0000000000000000000000000000000000000000000000000000000008152600401610beb90611fc6565b60405180910390fd5b5f60405180604001604052808481526020018381525090508060055f3373ffffffffffffffffffffffffffffffffffffffff1673ffffffffffffffffffffffffffffffffffffffff1681526020019081526020015f205f820151815f019081610c5d9190612181565b506020820151816001019081610c739190612181565b50905050600733908060018154018082558091505060019003905f5260205f20015f9091909190916101000a81548173ffffffffffffffffffffffffffffffffffffffff021916908373ffffffffffffffffffffffffffffffffffffffff160217905550505050565b6005602052805f5260405f205f91509050805f018054610cfb90611e30565b80601f0160208091040260200160405190810160405280929190818152602001828054610d2790611e30565b8015610d725780601f10610d4957610100808354040283529160200191610d72565b820191905f5260205f20905b815481529060010190602001808311610d5557829003601f168201915b505050505090806001018054610d8790611e30565b80601f0160208091040260200160405190810160405280929190818152602001828054610db390611e30565b8015610dfe5780601f10610dd557610100808354040283529160200191610dfe565b820191905f5260205f20905b815481529060010190602001808311610de157829003601f168201915b5050505050905082565b60085f9054906101000a900473ffffffffffffffffffffffffffffffffffffffff1681565b7f000000000000000000000000000000000000000000000000000000000000000081565b5f600780549050905090565b60028054610e6a90611e30565b80601f0160208091040260200160405190810160405280929190818152602001828054610e9690611e30565b8015610ee15780601f10610eb857610100808354040283529160200191610ee1565b820191905f5260205f20905b815481529060010190602001808311610ec457829003601f168201915b505050505081565b60078181548110610ef8575f80fd5b905f5260205f20015f915054906101000a900473ffffffffffffffffffffffffffffffffffffffff1681565b5f60015f9054906101000a900473ffffffffffffffffffffffffffffffffffffffff1673ffffffffffffffffffffffffffffffffffffffff163373ffffffffffffffffffffffffffffffffffffffff1614610fb4576040517f08c379a0000000000000000000000000000000000000000000000000000000008152600401610fab90611b87565b60405180910390fd5b5f845103610ff7576040517f08c379a0000000000000000000000000000000000000000000000000000000008152600401610fee906122c0565b60405180910390fd5b6009604051806060016040528086815260200185815260200184815250908060018154018082558091505060019003905f5260205f2090600302015f909190919091505f820151815f01908161104d9190612181565b50602082015181600101556040820151816002015550506001600980549050611076919061230b565b90509392505050565b5f8061108a336113d9565b6110c9576040517f08c379a00000000000000000000000000000000000000000000000000000000081526004016110c090611ed0565b60405180910390fd5b6009805490508310611110576040517f08c379a0000000000000000000000000000000000000000000000000000000008152600401611107906123ae565b60405180910390fd5b5f600a5f3373ffffffffffffffffffffffffffffffffffffffff1673ffffffffffffffffffffffffffffffffffffffff1681526020019081526020015f205f8581526020019081526020015f206040518060400160405290815f82015f9054906101000a900460ff16600281111561118b5761118a6116e4565b5b600281111561119d5761119c6116e4565b5b81526020016001820154815250509050805f015192508060200151915050915091565b5f73ffffffffffffffffffffffffffffffffffffffff168173ffffffffffffffffffffffffffffffffffffffff160361122e576040517f08c379a00000000000000000000000000000000000000000000000000000000081526004016112259061243c565b60405180910390fd5b8060085f6101000a81548173ffffffffffffffffffffffffffffffffffffffff021916908373ffffffffffffffffffffffffffffffffffffffff16021790555050565b600160045f6101000a81548160ff021916908315150217905550565b6003805461129a90611e30565b80601f01602080910402602001604051908101604052809291908181526020018280546112c690611e30565b80156113115780601f106112e857610100808354040283529160200191611311565b820191905f5260205f20905b8154815290600101906020018083116112f457829003601f168201915b505050505081565b60015f9054906101000a900473ffffffffffffffffffffffffffffffffffffffff1681565b6006602052805f5260405f205f91509050805461135a90611e30565b80601f016020809104026020016040519081016040528092919081815260200182805461138690611e30565b80156113d15780601f106113a8576101008083540402835291602001916113d1565b820191905f5260205f20905b8154815290600101906020018083116113b457829003601f168201915b505050505081565b5f8060055f8473ffffffffffffffffffffffffffffffffffffffff1673ffffffffffffffffffffffffffffffffffffffff1681526020019081526020015f205f01805461142590611e30565b80601f016020809104026020016040519081016040528092919081815260200182805461145190611e30565b801561149c5780601f106114735761010080835404028352916020019161149c565b820191905f5260205f20905b81548152906001019060200180831161147f57829003601f168201915b505050505090505f81511415915050919050565b5f82825260208201905092915050565b7f4e6f207365207065726d697465206c6120726563657063696f6e2064652064695f8201527f6e65726f2e000000000000000000000000000000000000000000000000000000602082015250565b5f61151a6025836114b0565b9150611525826114c0565b604082019050919050565b5f6020820190508181035f8301526115478161150e565b9050919050565b5f8115159050919050565b6115628161154e565b82525050565b5f60208201905061157b5f830184611559565b92915050565b5f604051905090565b5f80fd5b5f80fd5b5f73ffffffffffffffffffffffffffffffffffffffff82169050919050565b5f6115bb82611592565b9050919050565b6115cb816115b1565b81146115d5575f80fd5b50565b5f813590506115e6816115c2565b92915050565b5f819050919050565b6115fe816115ec565b8114611608575f80fd5b50565b5f81359050611619816115f5565b92915050565b6003811061162b575f80fd5b50565b5f8135905061163c8161161f565b92915050565b5f805f806080858703121561165a5761165961158a565b5b5f611667878288016115d8565b94505060206116788782880161160b565b93505060406116898782880161162e565b925050606061169a8782880161160b565b91505092959194509250565b5f80604083850312156116bc576116bb61158a565b5b5f6116c9858286016115d8565b92505060206116da8582860161160b565b9150509250929050565b7f4e487b71000000000000000000000000000000000000000000000000000000005f52602160045260245ffd5b60038110611722576117216116e4565b5b50565b5f81905061173282611711565b919050565b5f61174182611725565b9050919050565b61175181611737565b82525050565b611760816115ec565b82525050565b5f6040820190506117795f830185611748565b6117866020830184611757565b9392505050565b5f602082840312156117a2576117a161158a565b5b5f6117af8482850161160b565b91505092915050565b5f81519050919050565b5f5b838110156117df5780820151818401526020810190506117c4565b5f8484015250505050565b5f601f19601f8301169050919050565b5f611804826117b8565b61180e81856114b0565b935061181e8185602086016117c2565b611827816117ea565b840191505092915050565b5f6060820190508181035f83015261184a81866117fa565b90506118596020830185611757565b6118666040830184611757565b949350505050565b5f6020820190506118815f830184611757565b92915050565b5f6040820190508181035f83015261189f81856117fa565b905081810360208301526118b381846117fa565b90509392505050565b5f6020820190508181035f8301526118d481846117fa565b905092915050565b5f80fd5b5f80fd5b7f4e487b71000000000000000000000000000000000000000000000000000000005f52604160045260245ffd5b61191a826117ea565b810181811067ffffffffffffffff82111715611939576119386118e4565b5b80604052505050565b5f61194b611581565b90506119578282611911565b919050565b5f67ffffffffffffffff821115611976576119756118e4565b5b61197f826117ea565b9050602081019050919050565b828183375f83830152505050565b5f6119ac6119a78461195c565b611942565b9050828152602081018484840111156119c8576119c76118e0565b5b6119d384828561198c565b509392505050565b5f82601f8301126119ef576119ee6118dc565b5b81356119ff84826020860161199a565b91505092915050565b5f8060408385031215611a1e57611a1d61158a565b5b5f83013567ffffffffffffffff811115611a3b57611a3a61158e565b5b611a47858286016119db565b925050602083013567ffffffffffffffff811115611a6857611a6761158e565b5b611a74858286016119db565b9150509250929050565b5f60208284031215611a9357611a9261158a565b5b5f611aa0848285016115d8565b91505092915050565b611ab2816115b1565b82525050565b5f602082019050611acb5f830184611aa9565b92915050565b5f805f60608486031215611ae857611ae761158a565b5b5f84013567ffffffffffffffff811115611b0557611b0461158e565b5b611b11868287016119db565b9350506020611b228682870161160b565b9250506040611b338682870161160b565b9150509250925092565b7f536f6c6f207065726d697469646f20616c2070726f6665736f720000000000005f82015250565b5f611b71601a836114b0565b9150611b7c82611b3d565b602082019050919050565b5f6020820190508181035f830152611b9e81611b65565b9050919050565b7f4c6120617369676e617475726120796120657374c3a120636572726164612c205f8201527f6e6f207365207075656465206d6f646966696361720000000000000000000000602082015250565b5f611bff6035836114b0565b9150611c0a82611ba5565b604082019050919050565b5f6020820190508181035f830152611c2c81611bf3565b9050919050565b7f536f6c6f2073652070756564656e2063616c696669636172206120756e20616c5f8201527f756d6e6f206d6174726963756c61646f2e000000000000000000000000000000602082015250565b5f611c8d6031836114b0565b9150611c9882611c33565b604082019050919050565b5f6020820190508181035f830152611cba81611c81565b9050919050565b7f4e6f2073652070756564652063616c69666963617220756e61206576616c75615f8201527f63696f6e20717565206e6f206578697374652e00000000000000000000000000602082015250565b5f611d1b6033836114b0565b9150611d2682611cc1565b604082019050919050565b5f6020820190508181035f830152611d4881611d0f565b9050919050565b7f4e6f2073652070756564652063616c69666963617220636f6e20756e61206e6f5f8201527f7461207375706572696f722061206c61206d6178696d61207065726d6974696460208201527f612e000000000000000000000000000000000000000000000000000000000000604082015250565b5f611dcf6042836114b0565b9150611dda82611d4f565b606082019050919050565b5f6020820190508181035f830152611dfc81611dc3565b9050919050565b7f4e487b71000000000000000000000000000000000000000000000000000000005f52602260045260245ffd5b5f6002820490506001821680611e4757607f821691505b602082108103611e5a57611e59611e03565b5b50919050565b7f536f6c6f207065726d697469646f206120616c756d6e6f73206d6174726963755f8201527f6c61646f73000000000000000000000000000000000000000000000000000000602082015250565b5f611eba6025836114b0565b9150611ec582611e60565b604082019050919050565b5f6020820190508181035f830152611ee781611eae565b9050919050565b7f536f6c6f207065726d697469646f206120616c756d6e6f73206e6f206d6174725f8201527f6963756c61646f73000000000000000000000000000000000000000000000000602082015250565b5f611f486028836114b0565b9150611f5382611eee565b604082019050919050565b5f6020820190508181035f830152611f7581611f3c565b9050919050565b7f456c206e6f6d627265206e6f2070756564652073657220766163696f000000005f82015250565b5f611fb0601c836114b0565b9150611fbb82611f7c565b602082019050919050565b5f6020820190508181035f830152611fdd81611fa4565b9050919050565b5f819050815f5260205f209050919050565b5f6020601f8301049050919050565b5f82821b905092915050565b5f600883026120407fffffffffffffffffffffffffffffffffffffffffffffffffffffffffffffffff82612005565b61204a8683612005565b95508019841693508086168417925050509392505050565b5f819050919050565b5f61208561208061207b846115ec565b612062565b6115ec565b9050919050565b5f819050919050565b61209e8361206b565b6120b26120aa8261208c565b848454612011565b825550505050565b5f90565b6120c66120ba565b6120d1818484612095565b505050565b5b818110156120f4576120e95f826120be565b6001810190506120d7565b5050565b601f8211156121395761210a81611fe4565b61211384611ff6565b81016020851015612122578190505b61213661212e85611ff6565b8301826120d6565b50505b505050565b5f82821c905092915050565b5f6121595f198460080261213e565b1980831691505092915050565b5f612171838361214a565b9150826002028217905092915050565b61218a826117b8565b67ffffffffffffffff8111156121a3576121a26118e4565b5b6121ad8254611e30565b6121b88282856120f8565b5f60209050601f8311600181146121e9575f84156121d7578287015190505b6121e18582612166565b865550612248565b601f1984166121f786611fe4565b5f5b8281101561221e578489015182556001820191506020850194506020810190506121f9565b8683101561223b5784890151612237601f89168261214a565b8355505b6001600288020188555050505b505050505050565b7f456c206e6f6d627265206465206c61206576616c756163696f6e206e6f2070755f8201527f6564652073657220766163696f00000000000000000000000000000000000000602082015250565b5f6122aa602d836114b0565b91506122b582612250565b604082019050919050565b5f6020820190508181035f8301526122d78161229e565b9050919050565b7f4e487b71000000000000000000000000000000000000000000000000000000005f52601160045260245ffd5b5f612315826115ec565b9150612320836115ec565b9250828203905081811115612338576123376122de565b5b92915050565b7f456c20696e64696365206465206c61206576616c756163696f6e206e6f2065785f8201527f697374652e000000000000000000000000000000000000000000000000000000602082015250565b5f6123986025836114b0565b91506123a38261233e565b604082019050919050565b5f6020820190508181035f8301526123c58161238c565b9050919050565b7f7469656e652071756520686162657220756e206164647265737320636f7272655f8201527f63746f0000000000000000000000000000000000000000000000000000000000602082015250565b5f6124266023836114b0565b9150612431826123cc565b604082019050919050565b5f6020820190508181035f8301526124538161241a565b905091905056fea2646970667358221220df3689ab17ce48ba583862d87b68a29d98fd455ce323fced50d4e8fa5de6d80064736f6c63430008150033",
  "immutableReferences": {
    "9": [
      {
        "length": 32,
        "start": 3631
      }
    ]
  },
  "source": "// SPDX-License-Identifier: UNLICENSED\npragma solidity ^0.8.16;\n\n/**\n *  El contrato Asignatura que representa una asignatura de la carrera.\n *\n * Version Lite - Practicas\n */\n\ncontract AsignaturaLite {\n    string public version = \"2022 Lite\";\n    address public profesor;\n    address public immutable owner;\n    string public nombre;\n    string public curso;\n    bool public cerrada;\n  \n\n    struct DatosAlumno {\n        string nombre;\n        string email;\n    }\n    struct Evaluacion {\n        string nombre;\n        uint fecha;\n        uint porcentaje;\n    }\n\n    mapping(address => DatosAlumno) public datosAlumno;\n    mapping(address => string) public profesores;\n    address[] public matriculas;\n    address public coordinador; \n    Evaluacion[] public evaluaciones;\n\n    enum TipoNota {\n        Empty,\n        NP,\n        Normal\n    }\n\n    struct Nota {\n        TipoNota tipo;\n        uint calificacion;\n    }\n\n    mapping(address => mapping(uint => Nota)) public calificaciones;\n\n    constructor(string memory _nombre, string memory _curso) {\n        require(\n            bytes(_nombre).length != 0,\n            \"El nombre de la asignatura no puede ser vacio\"\n        );\n        require(\n            bytes(_curso).length != 0,\n            \"El curso academico de la asignatura no puede ser vacio\"\n        );\n\n        profesor = msg.sender;\n        nombre = _nombre;\n        curso = _curso;\n        owner = msg.sender;\n    }\n\n    /**\n     */\n    function setCoordinador(address coordinador_) external {\n      require(coordinador_ != address(0), \"tiene que haber un address correcto\");\n      coordinador = coordinador_;\n    }\n\n    /**\n     * Los alumnos pueden automatricularse con el metodo automatricula.\n     *\n     * Impedir que se pueda meter un nombre vacio.\n     *\n     * @param _nombre El nombre del alumno.\n     * @param _email  El email del alumno.\n     */\n    function automatricula(\n        string memory _nombre,\n        string memory _email\n    ) public soloNoMatriculados estaCerrada {\n        require(bytes(_nombre).length != 0, \"El nombre no puede ser vacio\");\n\n        DatosAlumno memory datos = DatosAlumno(_nombre, _email);\n\n        datosAlumno[msg.sender] = datos;\n\n        matriculas.push(msg.sender);\n    }\n\n    /**\n     * El numero de alumnos matriculados.\n     *\n     * @return El numero de alumnos matriculados.\n     */\n    function matriculasLength() public view returns (uint) {\n        return matriculas.length;\n    }\n\n    /**\n     * Permite a un alumno obtener sus propios datos.\n     *\n     * @return _nombre El nombre del alumno que invoca el metodo.\n     * @return _email  El email del alumno que invoca el metodo.\n     */\n    function quienSoy()\n        public\n        view\n        soloMatriculados\n        returns (string memory _nombre, string memory _email)\n    {\n        DatosAlumno memory datos = datosAlumno[msg.sender];\n        _nombre = datos.nombre;\n        _email = datos.email;\n    }\n\n    /**\n     * Crear una prueba de evaluacion de la asignatura. Por ejemplo, el primer parcial, o la practica 3.\n     *\n     * Las evaluaciones se meteran en el array evaluaciones, y nos referiremos a ellas por su posicion en el array.\n     *\n     * @param _nombre El nombre de la evaluacion.\n     * @param _fecha  La fecha de evaluacion (segundos desde el 1/1/1970).\n     * @param _porcentaje El porcentaje de puntos que proporciona a la nota final.\n     *\n     * @return La posicion en el array evaluaciones,\n     */\n    function creaEvaluacion(\n        string memory _nombre,\n        uint _fecha,\n        uint _porcentaje\n    ) public soloProfesor returns (uint) {\n        require(\n            bytes(_nombre).length != 0,\n            \"El nombre de la evaluacion no puede ser vacio\"\n        );\n\n        evaluaciones.push(Evaluacion(_nombre, _fecha, _porcentaje));\n        return evaluaciones.length - 1;\n    }\n\n    /**\n     * El numero de evaluaciones creadas.\n     *\n     * @return El numero de evaluaciones creadas.\n     */\n    function evaluacionesLength() public view returns (uint) {\n        return evaluaciones.length;\n    }\n\n    /**\n     * Poner la nota de un alumno en una evaluacion.\n     *\n     * @param alumno        La direccion del alumno.\n     * @param evaluacion    El indice de una evaluacion en el array evaluaciones.\n     * @param tipo          Tipo de nota.\n     * @param calificacion  La calificacion, multipilicada por 100 porque no hay decimales.\n     */\n    function califica(\n        address alumno,\n        uint evaluacion,\n        TipoNota tipo,\n        uint calificacion\n    ) public soloProfesor estaCerrada {\n        require(\n            estaMatriculado(alumno),\n            \"Solo se pueden calificar a un alumno matriculado.\"\n        );\n        require(\n            evaluacion < evaluaciones.length,\n            \"No se puede calificar una evaluacion que no existe.\"\n        );\n        require(\n            calificacion <= 1000,\n            \"No se puede calificar con una nota superior a la maxima permitida.\"\n        );\n\n        Nota memory nota = Nota(tipo, calificacion);\n\n        calificaciones[alumno][evaluacion] = nota;\n    }\n\n    /**\n     * Devuelve el tipo de nota y la calificacion que ha sacado el alumno que invoca el metodo en la evaluacion pasada como parametro.\n     *\n     * @param evaluacion Indice de una evaluacion en el array de evaluaciones.\n     *\n     * @return tipo         El tipo de nota que ha sacado el alumno.\n     * @return calificacion La calificacion que ha sacado el alumno.\n     */\n    function miNota(\n        uint evaluacion\n    ) public view soloMatriculados returns (TipoNota tipo, uint calificacion) {\n        require(\n            evaluacion < evaluaciones.length,\n            \"El indice de la evaluacion no existe.\"\n        );\n\n        Nota memory nota = calificaciones[msg.sender][evaluacion];\n\n        tipo = nota.tipo;\n        calificacion = nota.calificacion;\n    }\n\n    /**\n     * Consulta si una direccion pertenece a un alumno matriculado.\n     *\n     * @param alumno La direccion de un alumno.\n     *\n     * @return true si es una alumno matriculado.\n     */\n    function estaMatriculado(address alumno) private view returns (bool) {\n        string memory _nombre = datosAlumno[alumno].nombre;\n\n        return bytes(_nombre).length != 0;\n    }\n\n    function cerrar() external {\n      cerrada = true;\n    }\n\n\n    /**\n     * Modificador para que una funcion solo la pueda ejecutar el profesor.\n     *\n     * Se usa en creaEvaluacion y en califica.\n     */\n    modifier soloProfesor() {\n        require(msg.sender == profesor, \"Solo permitido al profesor\");\n        _;\n    }\n\n    /**\n     * Modificador para que una funcion solo la pueda ejecutar un alumno matriculado.\n     */\n    modifier soloMatriculados() {\n        require(\n            estaMatriculado(msg.sender),\n            \"Solo permitido a alumnos matriculados\"\n        );\n        _;\n    }\n\n    /**\n     * Modificador para que una funcion solo la pueda ejecutar un alumno no matriculado aun.\n     */\n    modifier soloNoMatriculados() {\n        require(\n            !estaMatriculado(msg.sender),\n            \"Solo permitido a alumnos no matriculados\"\n        );\n        _;\n    }\n\n    /**\n     */\n    modifier estaCerrada() {\n      require(!cerrada, unicode\"La asignatura ya est cerrada, no se puede modificar\");\n      _;\n    }\n\n    /**\n     * No se permite la recepcion de dinero.\n     */\n    receive() external payable {\n        revert(\"No se permite la recepcion de dinero.\");\n    }\n}\n",
  "sourcePath": "/Users/apabook/Desktop/bc/contracts/AsignaturaLite.sol",
  "compiler": {
    "name": "solc",
    "version": "0.8.21+commit.d9974bed.Emscripten.clang"
  },
  "schemaVersion": "3.4.16",
  "updatedAt": "2023-10-29T19:43:34.301Z",
  "devdoc": {
    "kind": "dev",
    "methods": {
      "automatricula(string,string)": {
        "params": {
          "_email": "El email del alumno.",
          "_nombre": "El nombre del alumno."
        }
      },
      "califica(address,uint256,uint8,uint256)": {
        "params": {
          "alumno": "La direccion del alumno.",
          "calificacion": "La calificacion, multipilicada por 100 porque no hay decimales.",
          "evaluacion": "El indice de una evaluacion en el array evaluaciones.",
          "tipo": "Tipo de nota."
        }
      },
      "creaEvaluacion(string,uint256,uint256)": {
        "params": {
          "_fecha": "La fecha de evaluacion (segundos desde el 1/1/1970).",
          "_nombre": "El nombre de la evaluacion.",
          "_porcentaje": "El porcentaje de puntos que proporciona a la nota final."
        },
        "returns": {
          "_0": "La posicion en el array evaluaciones,"
        }
      },
      "evaluacionesLength()": {
        "returns": {
          "_0": "El numero de evaluaciones creadas."
        }
      },
      "matriculasLength()": {
        "returns": {
          "_0": "El numero de alumnos matriculados."
        }
      },
      "miNota(uint256)": {
        "params": {
          "evaluacion": "Indice de una evaluacion en el array de evaluaciones."
        },
        "returns": {
          "calificacion": "La calificacion que ha sacado el alumno.",
          "tipo": "        El tipo de nota que ha sacado el alumno."
        }
      },
      "quienSoy()": {
        "returns": {
          "_email": " El email del alumno que invoca el metodo.",
          "_nombre": "El nombre del alumno que invoca el metodo."
        }
      }
    },
    "version": 1
  },
  "userdoc": {
    "kind": "user",
    "methods": {
      "automatricula(string,string)": {
        "notice": "Los alumnos pueden automatricularse con el metodo automatricula. Impedir que se pueda meter un nombre vacio."
      },
      "califica(address,uint256,uint8,uint256)": {
        "notice": "Poner la nota de un alumno en una evaluacion."
      },
      "creaEvaluacion(string,uint256,uint256)": {
        "notice": "Crear una prueba de evaluacion de la asignatura. Por ejemplo, el primer parcial, o la practica 3. Las evaluaciones se meteran en el array evaluaciones, y nos referiremos a ellas por su posicion en el array."
      },
      "evaluacionesLength()": {
        "notice": "El numero de evaluaciones creadas."
      },
      "matriculasLength()": {
        "notice": "El numero de alumnos matriculados."
      },
      "miNota(uint256)": {
        "notice": "Devuelve el tipo de nota y la calificacion que ha sacado el alumno que invoca el metodo en la evaluacion pasada como parametro."
      },
      "quienSoy()": {
        "notice": "Permite a un alumno obtener sus propios datos."
      }
    },
    "notice": "El contrato Asignatura que representa una asignatura de la carrera. Version Lite - Practicas",
    "version": 1
  }
}