{
  "contractName": "AsignaturaFull",
  "abi": [
    {
      "inputs": [
        {
          "internalType": "string",
          "name": "_nombre",
          "type": "string"
        },
        {
          "internalType": "string",
          "name": "_curso",
          "type": "string"
        }
      ],
      "stateMutability": "nonpayable",
      "type": "constructor"
    },
    {
      "inputs": [
        {
          "internalType": "address",
          "name": "",
          "type": "address"
        },
        {
          "internalType": "uint256",
          "name": "",
          "type": "uint256"
        }
      ],
      "name": "calificaciones",
      "outputs": [
        {
          "internalType": "enum AsignaturaFull.TipoNota",
          "name": "tipo",
          "type": "uint8"
        },
        {
          "internalType": "uint256",
          "name": "calificacion",
          "type": "uint256"
        }
      ],
      "stateMutability": "view",
      "type": "function"
    },
    {
      "inputs": [],
      "name": "cerrada",
      "outputs": [
        {
          "internalType": "bool",
          "name": "",
          "type": "bool"
        }
      ],
      "stateMutability": "view",
      "type": "function"
    },
    {
      "inputs": [],
      "name": "coordinador",
      "outputs": [
        {
          "internalType": "address",
          "name": "",
          "type": "address"
        }
      ],
      "stateMutability": "view",
      "type": "function"
    },
    {
      "inputs": [],
      "name": "curso",
      "outputs": [
        {
          "internalType": "string",
          "name": "",
          "type": "string"
        }
      ],
      "stateMutability": "view",
      "type": "function"
    },
    {
      "inputs": [
        {
          "internalType": "address",
          "name": "",
          "type": "address"
        }
      ],
      "name": "datosAlumno",
      "outputs": [
        {
          "internalType": "string",
          "name": "nombre",
          "type": "string"
        },
        {
          "internalType": "string",
          "name": "email",
          "type": "string"
        }
      ],
      "stateMutability": "view",
      "type": "function"
    },
    {
      "inputs": [
        {
          "internalType": "address",
          "name": "",
          "type": "address"
        }
      ],
      "name": "datosProfesor",
      "outputs": [
        {
          "internalType": "string",
          "name": "",
          "type": "string"
        }
      ],
      "stateMutability": "view",
      "type": "function"
    },
    {
      "inputs": [
        {
          "internalType": "uint256",
          "name": "",
          "type": "uint256"
        }
      ],
      "name": "evaluaciones",
      "outputs": [
        {
          "internalType": "string",
          "name": "nombre",
          "type": "string"
        },
        {
          "internalType": "uint256",
          "name": "fecha",
          "type": "uint256"
        },
        {
          "internalType": "uint256",
          "name": "porcentaje",
          "type": "uint256"
        }
      ],
      "stateMutability": "view",
      "type": "function"
    },
    {
      "inputs": [
        {
          "internalType": "uint256",
          "name": "",
          "type": "uint256"
        }
      ],
      "name": "matriculas",
      "outputs": [
        {
          "internalType": "address",
          "name": "",
          "type": "address"
        }
      ],
      "stateMutability": "view",
      "type": "function"
    },
    {
      "inputs": [],
      "name": "nombre",
      "outputs": [
        {
          "internalType": "string",
          "name": "",
          "type": "string"
        }
      ],
      "stateMutability": "view",
      "type": "function"
    },
    {
      "inputs": [],
      "name": "owner",
      "outputs": [
        {
          "internalType": "address",
          "name": "",
          "type": "address"
        }
      ],
      "stateMutability": "view",
      "type": "function"
    },
    {
      "inputs": [],
      "name": "profesor",
      "outputs": [
        {
          "internalType": "address",
          "name": "",
          "type": "address"
        }
      ],
      "stateMutability": "view",
      "type": "function"
    },
    {
      "inputs": [
        {
          "internalType": "uint256",
          "name": "",
          "type": "uint256"
        }
      ],
      "name": "profesores",
      "outputs": [
        {
          "internalType": "address",
          "name": "",
          "type": "address"
        }
      ],
      "stateMutability": "view",
      "type": "function"
    },
    {
      "inputs": [],
      "name": "version",
      "outputs": [
        {
          "internalType": "string",
          "name": "",
          "type": "string"
        }
      ],
      "stateMutability": "view",
      "type": "function"
    },
    {
      "stateMutability": "payable",
      "type": "receive"
    },
    {
      "inputs": [
        {
          "internalType": "address",
          "name": "coordinador_",
          "type": "address"
        }
      ],
      "name": "setCoordinador",
      "outputs": [],
      "stateMutability": "nonpayable",
      "type": "function"
    },
    {
      "inputs": [
        {
          "internalType": "string",
          "name": "_nombre",
          "type": "string"
        },
        {
          "internalType": "string",
          "name": "_email",
          "type": "string"
        }
      ],
      "name": "automatricula",
      "outputs": [],
      "stateMutability": "nonpayable",
      "type": "function"
    },
    {
      "inputs": [],
      "name": "matriculasLength",
      "outputs": [
        {
          "internalType": "uint256",
          "name": "",
          "type": "uint256"
        }
      ],
      "stateMutability": "view",
      "type": "function"
    },
    {
      "inputs": [],
      "name": "quienSoy",
      "outputs": [
        {
          "internalType": "string",
          "name": "_nombre",
          "type": "string"
        },
        {
          "internalType": "string",
          "name": "_email",
          "type": "string"
        }
      ],
      "stateMutability": "view",
      "type": "function"
    },
    {
      "inputs": [],
      "name": "profesoresLength",
      "outputs": [
        {
          "internalType": "uint256",
          "name": "",
          "type": "uint256"
        }
      ],
      "stateMutability": "view",
      "type": "function"
    },
    {
      "inputs": [
        {
          "internalType": "string",
          "name": "_nombre",
          "type": "string"
        },
        {
          "internalType": "uint256",
          "name": "_fecha",
          "type": "uint256"
        },
        {
          "internalType": "uint256",
          "name": "_porcentaje",
          "type": "uint256"
        }
      ],
      "name": "creaEvaluacion",
      "outputs": [
        {
          "internalType": "uint256",
          "name": "",
          "type": "uint256"
        }
      ],
      "stateMutability": "nonpayable",
      "type": "function"
    },
    {
      "inputs": [],
      "name": "evaluacionesLength",
      "outputs": [
        {
          "internalType": "uint256",
          "name": "",
          "type": "uint256"
        }
      ],
      "stateMutability": "view",
      "type": "function"
    },
    {
      "inputs": [
        {
          "internalType": "address",
          "name": "alumno",
          "type": "address"
        },
        {
          "internalType": "uint256",
          "name": "evaluacion",
          "type": "uint256"
        },
        {
          "internalType": "enum AsignaturaFull.TipoNota",
          "name": "tipo",
          "type": "uint8"
        },
        {
          "internalType": "uint256",
          "name": "calificacion",
          "type": "uint256"
        }
      ],
      "name": "califica",
      "outputs": [],
      "stateMutability": "nonpayable",
      "type": "function"
    },
    {
      "inputs": [
        {
          "internalType": "uint256",
          "name": "evaluacion",
          "type": "uint256"
        }
      ],
      "name": "miNota",
      "outputs": [
        {
          "internalType": "enum AsignaturaFull.TipoNota",
          "name": "tipo",
          "type": "uint8"
        },
        {
          "internalType": "uint256",
          "name": "calificacion",
          "type": "uint256"
        }
      ],
      "stateMutability": "view",
      "type": "function"
    },
    {
      "inputs": [],
      "name": "cerrar",
      "outputs": [],
      "stateMutability": "nonpayable",
      "type": "function"
    },
    {
      "inputs": [
        {
          "internalType": "address",
          "name": "profesor_address_",
          "type": "address"
        },
        {
          "internalType": "string",
          "name": "name_",
          "type": "string"
        }
      ],
      "name": "addProfesor",
      "outputs": [],
      "stateMutability": "nonpayable",
      "type": "function"
    }
  ],
  "bytecode": "0x60a06040526040518060400160405280600981526020017f32303232204c69746500000000000000000000000000000000000000000000008152505f90816200004991906200040c565b5034801562000056575f80fd5b506040516200300f3803806200300f83398181016040528101906200007c919062000648565b5f825103620000c2576040517f08c379a0000000000000000000000000000000000000000000000000000000008152600401620000b9906200074f565b60405180910390fd5b5f81510362000108576040517f08c379a0000000000000000000000000000000000000000000000000000000008152600401620000ff90620007e3565b60405180910390fd5b3360015f6101000a81548173ffffffffffffffffffffffffffffffffffffffff021916908373ffffffffffffffffffffffffffffffffffffffff16021790555081600290816200015991906200040c565b5080600390816200016b91906200040c565b503373ffffffffffffffffffffffffffffffffffffffff1660808173ffffffffffffffffffffffffffffffffffffffff1681525050505062000803565b5f81519050919050565b7f4e487b71000000000000000000000000000000000000000000000000000000005f52604160045260245ffd5b7f4e487b71000000000000000000000000000000000000000000000000000000005f52602260045260245ffd5b5f60028204905060018216806200022457607f821691505b6020821081036200023a5762000239620001df565b5b50919050565b5f819050815f5260205f209050919050565b5f6020601f8301049050919050565b5f82821b905092915050565b5f600883026200029e7fffffffffffffffffffffffffffffffffffffffffffffffffffffffffffffffff8262000261565b620002aa868362000261565b95508019841693508086168417925050509392505050565b5f819050919050565b5f819050919050565b5f620002f4620002ee620002e884620002c2565b620002cb565b620002c2565b9050919050565b5f819050919050565b6200030f83620002d4565b620003276200031e82620002fb565b8484546200026d565b825550505050565b5f90565b6200033d6200032f565b6200034a81848462000304565b505050565b5b818110156200037157620003655f8262000333565b60018101905062000350565b5050565b601f821115620003c0576200038a8162000240565b620003958462000252565b81016020851015620003a5578190505b620003bd620003b48562000252565b8301826200034f565b50505b505050565b5f82821c905092915050565b5f620003e25f1984600802620003c5565b1980831691505092915050565b5f620003fc8383620003d1565b9150826002028217905092915050565b6200041782620001a8565b67ffffffffffffffff811115620004335762000432620001b2565b5b6200043f82546200020c565b6200044c82828562000375565b5f60209050601f83116001811462000482575f84156200046d578287015190505b620004798582620003ef565b865550620004e8565b601f198416620004928662000240565b5f5b82811015620004bb5784890151825560018201915060208501945060208101905062000494565b86831015620004db5784890151620004d7601f891682620003d1565b8355505b6001600288020188555050505b505050505050565b5f604051905090565b5f80fd5b5f80fd5b5f80fd5b5f80fd5b5f601f19601f8301169050919050565b620005248262000509565b810181811067ffffffffffffffff82111715620005465762000545620001b2565b5b80604052505050565b5f6200055a620004f0565b905062000568828262000519565b919050565b5f67ffffffffffffffff8211156200058a5762000589620001b2565b5b620005958262000509565b9050602081019050919050565b5f5b83811015620005c1578082015181840152602081019050620005a4565b5f8484015250505050565b5f620005e2620005dc846200056d565b6200054f565b90508281526020810184848401111562000601576200060062000505565b5b6200060e848285620005a2565b509392505050565b5f82601f8301126200062d576200062c62000501565b5b81516200063f848260208601620005cc565b91505092915050565b5f8060408385031215620006615762000660620004f9565b5b5f83015167ffffffffffffffff811115620006815762000680620004fd565b5b6200068f8582860162000616565b925050602083015167ffffffffffffffff811115620006b357620006b2620004fd565b5b620006c18582860162000616565b9150509250929050565b5f82825260208201905092915050565b7f456c206e6f6d627265206465206c6120617369676e6174757261206e6f2070755f8201527f6564652073657220766163696f00000000000000000000000000000000000000602082015250565b5f62000737602d83620006cb565b91506200074482620006db565b604082019050919050565b5f6020820190508181035f830152620007688162000729565b9050919050565b7f456c20637572736f2061636164656d69636f206465206c6120617369676e61745f8201527f757261206e6f2070756564652073657220766163696f00000000000000000000602082015250565b5f620007cb603683620006cb565b9150620007d8826200076f565b604082019050919050565b5f6020820190508181035f830152620007fc81620007bd565b9050919050565b6080516127f36200081c5f395f61109601526127f35ff3fe60806040526004361061014e575f3560e01c80638da5cb5b116100b5578063d27c3f3c1161006e578063d27c3f3c14610503578063d51b458414610540578063dab6ff2814610568578063deafcc411461057e578063df096576146105a8578063f967f986146105d25761018e565b80638da5cb5b146103d15780639e1d8f4b146103fb578063bc7b35b214610425578063c79181391461044f578063c83737501461048b578063d017da1f146104c75761018e565b8063537668831161010757806353766883146102b157806354fd4d50146102dc57806361d4c6ad14610306578063641945bf1461032e5780636bf8aad61461036a5780637810ff1e146103a75761018e565b80631d2e4d2b1461019257806322c4e394146101ba57806330322c9b146101e457806342a6dde21461020c57806344f7a8cc14610249578063488cf4f5146102875761018e565b3661018e576040517f08c379a000000000000000000000000000000000000000000000000000000000815260040161018590611743565b60405180910390fd5b5f80fd5b34801561019d575f80fd5b506101b860048036038101906101b39190611908565b6105fc565b005b3480156101c5575f80fd5b506101ce610719565b6040516101db919061197c565b60405180910390f35b3480156101ef575f80fd5b5061020a600480360381019061020591906119eb565b61072b565b005b348015610217575f80fd5b50610232600480360381019061022d9190611a4f565b610995565b604051610240929190611b0f565b60405180910390f35b348015610254575f80fd5b5061026f600480360381019061026a9190611b36565b6109cc565b60405161027e93929190611bcb565b60405180910390f35b348015610292575f80fd5b5061029b610a87565b6040516102a89190611c07565b60405180910390f35b3480156102bc575f80fd5b506102c5610a93565b6040516102d3929190611c20565b60405180910390f35b3480156102e7575f80fd5b506102f0610c5a565b6040516102fd9190611c55565b60405180910390f35b348015610311575f80fd5b5061032c60048036038101906103279190611c75565b610ce5565b005b348015610339575f80fd5b50610354600480360381019061034f9190611ceb565b610ea8565b6040516103619190611c55565b60405180910390f35b348015610375575f80fd5b50610390600480360381019061038b9190611ceb565b610f43565b60405161039e929190611c20565b60405180910390f35b3480156103b2575f80fd5b506103bb61106f565b6040516103c89190611d25565b60405180910390f35b3480156103dc575f80fd5b506103e5611094565b6040516103f29190611d25565b60405180910390f35b348015610406575f80fd5b5061040f6110b8565b60405161041c9190611c07565b60405180910390f35b348015610430575f80fd5b506104396110c4565b6040516104469190611c55565b60405180910390f35b34801561045a575f80fd5b5061047560048036038101906104709190611b36565b611150565b6040516104829190611d25565b60405180910390f35b348015610496575f80fd5b506104b160048036038101906104ac9190611b36565b61118b565b6040516104be9190611d25565b60405180910390f35b3480156104d2575f80fd5b506104ed60048036038101906104e89190611d3e565b6111c6565b6040516104fa9190611c07565b60405180910390f35b34801561050e575f80fd5b5061052960048036038101906105249190611b36565b611321565b604051610537929190611b0f565b60405180910390f35b34801561054b575f80fd5b5061056660048036038101906105619190611ceb565b611462565b005b348015610573575f80fd5b5061057c611513565b005b348015610589575f80fd5b5061059261152f565b60405161059f9190611c55565b60405180910390f35b3480156105b3575f80fd5b506105bc6115bb565b6040516105c99190611d25565b60405180910390f35b3480156105dd575f80fd5b506105e66115e0565b6040516105f39190611c07565b60405180910390f35b5f81511161063f576040517f08c379a000000000000000000000000000000000000000000000000000000000815260040161063690611e1a565b60405180910390fd5b5f60065f8473ffffffffffffffffffffffffffffffffffffffff1673ffffffffffffffffffffffffffffffffffffffff1681526020019081526020015f20805461068890611e65565b9050116106ca576040517f08c379a00000000000000000000000000000000000000000000000000000000081526004016106c190611edf565b60405180910390fd5b8060065f8473ffffffffffffffffffffffffffffffffffffffff1673ffffffffffffffffffffffffffffffffffffffff1681526020019081526020015f209081610714919061209a565b505050565b60045f9054906101000a900460ff1681565b60015f9054906101000a900473ffffffffffffffffffffffffffffffffffffffff1673ffffffffffffffffffffffffffffffffffffffff163373ffffffffffffffffffffffffffffffffffffffff16146107ba576040517f08c379a00000000000000000000000000000000000000000000000000000000081526004016107b1906121b3565b60405180910390fd5b60045f9054906101000a900460ff1615610809576040517f08c379a000000000000000000000000000000000000000000000000000000000815260040161080090612241565b60405180910390fd5b610812846115ec565b610851576040517f08c379a0000000000000000000000000000000000000000000000000000000008152600401610848906122cf565b60405180910390fd5b600a805490508310610898576040517f08c379a000000000000000000000000000000000000000000000000000000000815260040161088f9061235d565b60405180910390fd5b6103e88111156108dd576040517f08c379a00000000000000000000000000000000000000000000000000000000081526004016108d490612411565b60405180910390fd5b5f60405180604001604052808460028111156108fc576108fb611a8d565b5b815260200183815250905080600b5f8773ffffffffffffffffffffffffffffffffffffffff1673ffffffffffffffffffffffffffffffffffffffff1681526020019081526020015f205f8681526020019081526020015f205f820151815f015f6101000a81548160ff0219169083600281111561097c5761097b611a8d565b5b0217905550602082015181600101559050505050505050565b600b602052815f5260405f20602052805f5260405f205f9150915050805f015f9054906101000a900460ff16908060010154905082565b600a81815481106109db575f80fd5b905f5260205f2090600302015f91509050805f0180546109fa90611e65565b80601f0160208091040260200160405190810160405280929190818152602001828054610a2690611e65565b8015610a715780601f10610a4857610100808354040283529160200191610a71565b820191905f5260205f20905b815481529060010190602001808311610a5457829003601f168201915b5050505050908060010154908060020154905083565b5f600a80549050905090565b606080610a9f336115ec565b610ade576040517f08c379a0000000000000000000000000000000000000000000000000000000008152600401610ad59061249f565b60405180910390fd5b5f60055f3373ffffffffffffffffffffffffffffffffffffffff1673ffffffffffffffffffffffffffffffffffffffff1681526020019081526020015f206040518060400160405290815f82018054610b3690611e65565b80601f0160208091040260200160405190810160405280929190818152602001828054610b6290611e65565b8015610bad5780601f10610b8457610100808354040283529160200191610bad565b820191905f5260205f20905b815481529060010190602001808311610b9057829003601f168201915b50505050508152602001600182018054610bc690611e65565b80601f0160208091040260200160405190810160405280929190818152602001828054610bf290611e65565b8015610c3d5780601f10610c1457610100808354040283529160200191610c3d565b820191905f5260205f20905b815481529060010190602001808311610c2057829003601f168201915b5050505050815250509050805f0151925080602001519150509091565b5f8054610c6690611e65565b80601f0160208091040260200160405190810160405280929190818152602001828054610c9290611e65565b8015610cdd5780601f10610cb457610100808354040283529160200191610cdd565b820191905f5260205f20905b815481529060010190602001808311610cc057829003601f168201915b505050505081565b610cee336115ec565b15610d2e576040517f08c379a0000000000000000000000000000000000000000000000000000000008152600401610d259061252d565b60405180910390fd5b60045f9054906101000a900460ff1615610d7d576040517f08c379a0000000000000000000000000000000000000000000000000000000008152600401610d7490612241565b60405180910390fd5b5f825103610dc0576040517f08c379a0000000000000000000000000000000000000000000000000000000008152600401610db790612595565b60405180910390fd5b5f60405180604001604052808481526020018381525090508060055f3373ffffffffffffffffffffffffffffffffffffffff1673ffffffffffffffffffffffffffffffffffffffff1681526020019081526020015f205f820151815f019081610e29919061209a565b506020820151816001019081610e3f919061209a565b50905050600833908060018154018082558091505060019003905f5260205f20015f9091909190916101000a81548173ffffffffffffffffffffffffffffffffffffffff021916908373ffffffffffffffffffffffffffffffffffffffff160217905550505050565b6006602052805f5260405f205f915090508054610ec490611e65565b80601f0160208091040260200160405190810160405280929190818152602001828054610ef090611e65565b8015610f3b5780601f10610f1257610100808354040283529160200191610f3b565b820191905f5260205f20905b815481529060010190602001808311610f1e57829003601f168201915b505050505081565b6005602052805f5260405f205f91509050805f018054610f6290611e65565b80601f0160208091040260200160405190810160405280929190818152602001828054610f8e90611e65565b8015610fd95780601f10610fb057610100808354040283529160200191610fd9565b820191905f5260205f20905b815481529060010190602001808311610fbc57829003601f168201915b505050505090806001018054610fee90611e65565b80601f016020809104026020016040519081016040528092919081815260200182805461101a90611e65565b80156110655780601f1061103c57610100808354040283529160200191611065565b820191905f5260205f20905b81548152906001019060200180831161104857829003601f168201915b5050505050905082565b60095f9054906101000a900473ffffffffffffffffffffffffffffffffffffffff1681565b7f000000000000000000000000000000000000000000000000000000000000000081565b5f600880549050905090565b600280546110d190611e65565b80601f01602080910402602001604051908101604052809291908181526020018280546110fd90611e65565b80156111485780601f1061111f57610100808354040283529160200191611148565b820191905f5260205f20905b81548152906001019060200180831161112b57829003601f168201915b505050505081565b6008818154811061115f575f80fd5b905f5260205f20015f915054906101000a900473ffffffffffffffffffffffffffffffffffffffff1681565b6007818154811061119a575f80fd5b905f5260205f20015f915054906101000a900473ffffffffffffffffffffffffffffffffffffffff1681565b5f60015f9054906101000a900473ffffffffffffffffffffffffffffffffffffffff1673ffffffffffffffffffffffffffffffffffffffff163373ffffffffffffffffffffffffffffffffffffffff1614611256576040517f08c379a000000000000000000000000000000000000000000000000000000000815260040161124d906121b3565b60405180910390fd5b5f845103611299576040517f08c379a000000000000000000000000000000000000000000000000000000000815260040161129090612623565b60405180910390fd5b600a604051806060016040528086815260200185815260200184815250908060018154018082558091505060019003905f5260205f2090600302015f909190919091505f820151815f0190816112ef919061209a565b50602082015181600101556040820151816002015550506001600a80549050611318919061266e565b90509392505050565b5f8061132c336115ec565b61136b576040517f08c379a00000000000000000000000000000000000000000000000000000000081526004016113629061249f565b60405180910390fd5b600a8054905083106113b2576040517f08c379a00000000000000000000000000000000000000000000000000000000081526004016113a990612711565b60405180910390fd5b5f600b5f3373ffffffffffffffffffffffffffffffffffffffff1673ffffffffffffffffffffffffffffffffffffffff1681526020019081526020015f205f8581526020019081526020015f206040518060400160405290815f82015f9054906101000a900460ff16600281111561142d5761142c611a8d565b5b600281111561143f5761143e611a8d565b5b81526020016001820154815250509050805f015192508060200151915050915091565b5f73ffffffffffffffffffffffffffffffffffffffff168173ffffffffffffffffffffffffffffffffffffffff16036114d0576040517f08c379a00000000000000000000000000000000000000000000000000000000081526004016114c79061279f565b60405180910390fd5b8060095f6101000a81548173ffffffffffffffffffffffffffffffffffffffff021916908373ffffffffffffffffffffffffffffffffffffffff16021790555050565b600160045f6101000a81548160ff021916908315150217905550565b6003805461153c90611e65565b80601f016020809104026020016040519081016040528092919081815260200182805461156890611e65565b80156115b35780601f1061158a576101008083540402835291602001916115b3565b820191905f5260205f20905b81548152906001019060200180831161159657829003601f168201915b505050505081565b60015f9054906101000a900473ffffffffffffffffffffffffffffffffffffffff1681565b5f600780549050905090565b5f8060055f8473ffffffffffffffffffffffffffffffffffffffff1673ffffffffffffffffffffffffffffffffffffffff1681526020019081526020015f205f01805461163890611e65565b80601f016020809104026020016040519081016040528092919081815260200182805461166490611e65565b80156116af5780601f10611686576101008083540402835291602001916116af565b820191905f5260205f20905b81548152906001019060200180831161169257829003601f168201915b505050505090505f81511415915050919050565b5f82825260208201905092915050565b7f4e6f207365207065726d697465206c6120726563657063696f6e2064652064695f8201527f6e65726f2e000000000000000000000000000000000000000000000000000000602082015250565b5f61172d6025836116c3565b9150611738826116d3565b604082019050919050565b5f6020820190508181035f83015261175a81611721565b9050919050565b5f604051905090565b5f80fd5b5f80fd5b5f73ffffffffffffffffffffffffffffffffffffffff82169050919050565b5f61179b82611772565b9050919050565b6117ab81611791565b81146117b5575f80fd5b50565b5f813590506117c6816117a2565b92915050565b5f80fd5b5f80fd5b5f601f19601f8301169050919050565b7f4e487b71000000000000000000000000000000000000000000000000000000005f52604160045260245ffd5b61181a826117d4565b810181811067ffffffffffffffff82111715611839576118386117e4565b5b80604052505050565b5f61184b611761565b90506118578282611811565b919050565b5f67ffffffffffffffff821115611876576118756117e4565b5b61187f826117d4565b9050602081019050919050565b828183375f83830152505050565b5f6118ac6118a78461185c565b611842565b9050828152602081018484840111156118c8576118c76117d0565b5b6118d384828561188c565b509392505050565b5f82601f8301126118ef576118ee6117cc565b5b81356118ff84826020860161189a565b91505092915050565b5f806040838503121561191e5761191d61176a565b5b5f61192b858286016117b8565b925050602083013567ffffffffffffffff81111561194c5761194b61176e565b5b611958858286016118db565b9150509250929050565b5f8115159050919050565b61197681611962565b82525050565b5f60208201905061198f5f83018461196d565b92915050565b5f819050919050565b6119a781611995565b81146119b1575f80fd5b50565b5f813590506119c28161199e565b92915050565b600381106119d4575f80fd5b50565b5f813590506119e5816119c8565b92915050565b5f805f8060808587031215611a0357611a0261176a565b5b5f611a10878288016117b8565b9450506020611a21878288016119b4565b9350506040611a32878288016119d7565b9250506060611a43878288016119b4565b91505092959194509250565b5f8060408385031215611a6557611a6461176a565b5b5f611a72858286016117b8565b9250506020611a83858286016119b4565b9150509250929050565b7f4e487b71000000000000000000000000000000000000000000000000000000005f52602160045260245ffd5b60038110611acb57611aca611a8d565b5b50565b5f819050611adb82611aba565b919050565b5f611aea82611ace565b9050919050565b611afa81611ae0565b82525050565b611b0981611995565b82525050565b5f604082019050611b225f830185611af1565b611b2f6020830184611b00565b9392505050565b5f60208284031215611b4b57611b4a61176a565b5b5f611b58848285016119b4565b91505092915050565b5f81519050919050565b5f5b83811015611b88578082015181840152602081019050611b6d565b5f8484015250505050565b5f611b9d82611b61565b611ba781856116c3565b9350611bb7818560208601611b6b565b611bc0816117d4565b840191505092915050565b5f6060820190508181035f830152611be38186611b93565b9050611bf26020830185611b00565b611bff6040830184611b00565b949350505050565b5f602082019050611c1a5f830184611b00565b92915050565b5f6040820190508181035f830152611c388185611b93565b90508181036020830152611c4c8184611b93565b90509392505050565b5f6020820190508181035f830152611c6d8184611b93565b905092915050565b5f8060408385031215611c8b57611c8a61176a565b5b5f83013567ffffffffffffffff811115611ca857611ca761176e565b5b611cb4858286016118db565b925050602083013567ffffffffffffffff811115611cd557611cd461176e565b5b611ce1858286016118db565b9150509250929050565b5f60208284031215611d0057611cff61176a565b5b5f611d0d848285016117b8565b91505092915050565b611d1f81611791565b82525050565b5f602082019050611d385f830184611d16565b92915050565b5f805f60608486031215611d5557611d5461176a565b5b5f84013567ffffffffffffffff811115611d7257611d7161176e565b5b611d7e868287016118db565b9350506020611d8f868287016119b4565b9250506040611da0868287016119b4565b9150509250925092565b7f456c206e6f6d6272652064656c2070726f6665736f72206e6f207075656465205f8201527f657374617220766163c3ad6f0000000000000000000000000000000000000000602082015250565b5f611e04602c836116c3565b9150611e0f82611daa565b604082019050919050565b5f6020820190508181035f830152611e3181611df8565b9050919050565b7f4e487b71000000000000000000000000000000000000000000000000000000005f52602260045260245ffd5b5f6002820490506001821680611e7c57607f821691505b602082108103611e8f57611e8e611e38565b5b50919050565b7f456c2070726f6665736f722079612065786973746500000000000000000000005f82015250565b5f611ec96015836116c3565b9150611ed482611e95565b602082019050919050565b5f6020820190508181035f830152611ef681611ebd565b9050919050565b5f819050815f5260205f209050919050565b5f6020601f8301049050919050565b5f82821b905092915050565b5f60088302611f597fffffffffffffffffffffffffffffffffffffffffffffffffffffffffffffffff82611f1e565b611f638683611f1e565b95508019841693508086168417925050509392505050565b5f819050919050565b5f611f9e611f99611f9484611995565b611f7b565b611995565b9050919050565b5f819050919050565b611fb783611f84565b611fcb611fc382611fa5565b848454611f2a565b825550505050565b5f90565b611fdf611fd3565b611fea818484611fae565b505050565b5b8181101561200d576120025f82611fd7565b600181019050611ff0565b5050565b601f8211156120525761202381611efd565b61202c84611f0f565b8101602085101561203b578190505b61204f61204785611f0f565b830182611fef565b50505b505050565b5f82821c905092915050565b5f6120725f1984600802612057565b1980831691505092915050565b5f61208a8383612063565b9150826002028217905092915050565b6120a382611b61565b67ffffffffffffffff8111156120bc576120bb6117e4565b5b6120c68254611e65565b6120d1828285612011565b5f60209050601f831160018114612102575f84156120f0578287015190505b6120fa858261207f565b865550612161565b601f19841661211086611efd565b5f5b8281101561213757848901518255600182019150602085019450602081019050612112565b868310156121545784890151612150601f891682612063565b8355505b6001600288020188555050505b505050505050565b7f536f6c6f207065726d697469646f20616c2070726f6665736f720000000000005f82015250565b5f61219d601a836116c3565b91506121a882612169565b602082019050919050565b5f6020820190508181035f8301526121ca81612191565b9050919050565b7f4c6120617369676e617475726120796120657374c3a120636572726164612c205f8201527f6e6f207365207075656465206d6f646966696361720000000000000000000000602082015250565b5f61222b6035836116c3565b9150612236826121d1565b604082019050919050565b5f6020820190508181035f8301526122588161221f565b9050919050565b7f536f6c6f2073652070756564656e2063616c696669636172206120756e20616c5f8201527f756d6e6f206d6174726963756c61646f2e000000000000000000000000000000602082015250565b5f6122b96031836116c3565b91506122c48261225f565b604082019050919050565b5f6020820190508181035f8301526122e6816122ad565b9050919050565b7f4e6f2073652070756564652063616c69666963617220756e61206576616c75615f8201527f63696f6e20717565206e6f206578697374652e00000000000000000000000000602082015250565b5f6123476033836116c3565b9150612352826122ed565b604082019050919050565b5f6020820190508181035f8301526123748161233b565b9050919050565b7f4e6f2073652070756564652063616c69666963617220636f6e20756e61206e6f5f8201527f7461207375706572696f722061206c61206d6178696d61207065726d6974696460208201527f612e000000000000000000000000000000000000000000000000000000000000604082015250565b5f6123fb6042836116c3565b91506124068261237b565b606082019050919050565b5f6020820190508181035f830152612428816123ef565b9050919050565b7f536f6c6f207065726d697469646f206120616c756d6e6f73206d6174726963755f8201527f6c61646f73000000000000000000000000000000000000000000000000000000602082015250565b5f6124896025836116c3565b91506124948261242f565b604082019050919050565b5f6020820190508181035f8301526124b68161247d565b9050919050565b7f536f6c6f207065726d697469646f206120616c756d6e6f73206e6f206d6174725f8201527f6963756c61646f73000000000000000000000000000000000000000000000000602082015250565b5f6125176028836116c3565b9150612522826124bd565b604082019050919050565b5f6020820190508181035f8301526125448161250b565b9050919050565b7f456c206e6f6d627265206e6f2070756564652073657220766163696f000000005f82015250565b5f61257f601c836116c3565b915061258a8261254b565b602082019050919050565b5f6020820190508181035f8301526125ac81612573565b9050919050565b7f456c206e6f6d627265206465206c61206576616c756163696f6e206e6f2070755f8201527f6564652073657220766163696f00000000000000000000000000000000000000602082015250565b5f61260d602d836116c3565b9150612618826125b3565b604082019050919050565b5f6020820190508181035f83015261263a81612601565b9050919050565b7f4e487b71000000000000000000000000000000000000000000000000000000005f52601160045260245ffd5b5f61267882611995565b915061268383611995565b925082820390508181111561269b5761269a612641565b5b92915050565b7f456c20696e64696365206465206c61206576616c756163696f6e206e6f2065785f8201527f697374652e000000000000000000000000000000000000000000000000000000602082015250565b5f6126fb6025836116c3565b9150612706826126a1565b604082019050919050565b5f6020820190508181035f830152612728816126ef565b9050919050565b7f7469656e652071756520686162657220756e206164647265737320636f7272655f8201527f63746f0000000000000000000000000000000000000000000000000000000000602082015250565b5f6127896023836116c3565b91506127948261272f565b604082019050919050565b5f6020820190508181035f8301526127b68161277d565b905091905056fea2646970667358221220ec98e6c07bd22b7f1efbfa423b7bfe8ad96140651c8b613c757b55c9bf19524364736f6c63430008150033",
  "immutableReferences": {
    "9": [
      {
        "length": 32,
        "start": 4246
      }
    ]
  },
  "source": "// SPDX-License-Identifier: UNLICENSED\npragma solidity ^0.8.16;\n\n/**\n *  El contrato Asignatura que representa una asignatura de la carrera.\n *\n * Version Lite - Practicas\n */\n\ncontract AsignaturaFull {\n    string public version = \"2022 Lite\";\n    address public profesor;\n    address public immutable owner;\n    string public nombre;\n    string public curso;\n    bool public cerrada;\n\n    struct DatosAlumno {\n        string nombre;\n        string email;\n    }\n    struct Evaluacion {\n        string nombre;\n        uint fecha;\n        uint porcentaje;\n    }\n\n    mapping(address => DatosAlumno) public datosAlumno;\n    mapping(address => string) public datosProfesor;\n    address[] public profesores;\n    address[] public matriculas;\n    address public coordinador;\n    Evaluacion[] public evaluaciones;\n\n    enum TipoNota {\n        Empty,\n        NP,\n        Normal\n    }\n\n    struct Nota {\n        TipoNota tipo;\n        uint calificacion;\n    }\n\n    mapping(address => mapping(uint => Nota)) public calificaciones;\n\n    constructor(string memory _nombre, string memory _curso) {\n        require(\n            bytes(_nombre).length != 0,\n            \"El nombre de la asignatura no puede ser vacio\"\n        );\n        require(\n            bytes(_curso).length != 0,\n            \"El curso academico de la asignatura no puede ser vacio\"\n        );\n\n        profesor = msg.sender;\n        nombre = _nombre;\n        curso = _curso;\n        owner = msg.sender;\n    }\n\n    /**\n     */\n    function setCoordinador(address coordinador_) external {\n        require(\n            coordinador_ != address(0),\n            \"tiene que haber un address correcto\"\n        );\n        coordinador = coordinador_;\n    }\n\n    /**\n     * Los alumnos pueden automatricularse con el metodo automatricula.\n     *\n     * Impedir que se pueda meter un nombre vacio.\n     *\n     * @param _nombre El nombre del alumno.\n     * @param _email  El email del alumno.\n     */\n    function automatricula(\n        string memory _nombre,\n        string memory _email\n    ) public soloNoMatriculados estaCerrada {\n        require(bytes(_nombre).length != 0, \"El nombre no puede ser vacio\");\n\n        DatosAlumno memory datos = DatosAlumno(_nombre, _email);\n\n        datosAlumno[msg.sender] = datos;\n\n        matriculas.push(msg.sender);\n    }\n\n    /**\n     * El numero de alumnos matriculados.\n     *\n     * @return El numero de alumnos matriculados.\n     */\n    function matriculasLength() public view returns (uint) {\n        return matriculas.length;\n    }\n\n    /**\n     * Permite a un alumno obtener sus propios datos.\n     *\n     * @return _nombre El nombre del alumno que invoca el metodo.\n     * @return _email  El email del alumno que invoca el metodo.\n     */\n    function quienSoy()\n        public\n        view\n        soloMatriculados\n        returns (string memory _nombre, string memory _email)\n    {\n        DatosAlumno memory datos = datosAlumno[msg.sender];\n        _nombre = datos.nombre;\n        _email = datos.email;\n    }\n\n    function profesoresLength() public view returns(uint) {\n        return profesores.length; \n    }\n\n    /**\n     * Crear una prueba de evaluacion de la asignatura. Por ejemplo, el primer parcial, o la practica 3.\n     *\n     * Las evaluaciones se meteran en el array evaluaciones, y nos referiremos a ellas por su posicion en el array.\n     *\n     * @param _nombre El nombre de la evaluacion.\n     * @param _fecha  La fecha de evaluacion (segundos desde el 1/1/1970).\n     * @param _porcentaje El porcentaje de puntos que proporciona a la nota final.\n     *\n     * @return La posicion en el array evaluaciones,\n     */\n    function creaEvaluacion(\n        string memory _nombre,\n        uint _fecha,\n        uint _porcentaje\n    ) public soloProfesor returns (uint) {\n        require(\n            bytes(_nombre).length != 0,\n            \"El nombre de la evaluacion no puede ser vacio\"\n        );\n\n        evaluaciones.push(Evaluacion(_nombre, _fecha, _porcentaje));\n        return evaluaciones.length - 1;\n    }\n\n    /**\n     * El numero de evaluaciones creadas.\n     *\n     * @return El numero de evaluaciones creadas.\n     */\n    function evaluacionesLength() public view returns (uint) {\n        return evaluaciones.length;\n    }\n\n    /**\n     * Poner la nota de un alumno en una evaluacion.\n     *\n     * @param alumno        La direccion del alumno.\n     * @param evaluacion    El indice de una evaluacion en el array evaluaciones.\n     * @param tipo          Tipo de nota.\n     * @param calificacion  La calificacion, multipilicada por 100 porque no hay decimales.\n     */\n    function califica(\n        address alumno,\n        uint evaluacion,\n        TipoNota tipo,\n        uint calificacion\n    ) public soloProfesor estaCerrada {\n        require(\n            estaMatriculado(alumno),\n            \"Solo se pueden calificar a un alumno matriculado.\"\n        );\n        require(\n            evaluacion < evaluaciones.length,\n            \"No se puede calificar una evaluacion que no existe.\"\n        );\n        require(\n            calificacion <= 1000,\n            \"No se puede calificar con una nota superior a la maxima permitida.\"\n        );\n\n        Nota memory nota = Nota(tipo, calificacion);\n\n        calificaciones[alumno][evaluacion] = nota;\n    }\n\n    /**\n     * Devuelve el tipo de nota y la calificacion que ha sacado el alumno que invoca el metodo en la evaluacion pasada como parametro.\n     *\n     * @param evaluacion Indice de una evaluacion en el array de evaluaciones.\n     *\n     * @return tipo         El tipo de nota que ha sacado el alumno.\n     * @return calificacion La calificacion que ha sacado el alumno.\n     */\n    function miNota(\n        uint evaluacion\n    ) public view soloMatriculados returns (TipoNota tipo, uint calificacion) {\n        require(\n            evaluacion < evaluaciones.length,\n            \"El indice de la evaluacion no existe.\"\n        );\n\n        Nota memory nota = calificaciones[msg.sender][evaluacion];\n\n        tipo = nota.tipo;\n        calificacion = nota.calificacion;\n    }\n\n    /**\n     * Consulta si una direccion pertenece a un alumno matriculado.\n     *\n     * @param alumno La direccion de un alumno.\n     *\n     * @return true si es una alumno matriculado.\n     */\n    function estaMatriculado(address alumno) private view returns (bool) {\n        string memory _nombre = datosAlumno[alumno].nombre;\n\n        return bytes(_nombre).length != 0;\n    }\n\n    function cerrar() external {\n        cerrada = true;\n    }\n\n    function addProfesor(\n        address profesor_address_,\n        string memory name_\n    ) external {\n        require(\n            bytes(name_).length > 0,\n            unicode\"El nombre del profesor no puede estar vaco\"\n        );\n        require(\n            bytes(datosProfesor[profesor_address_]).length > 0,\n            unicode\"El profesor ya existe\"\n        );\n\n        datosProfesor[profesor_address_] = name_;\n    }\n\n    /**\n     * Modificador para que una funcion solo la pueda ejecutar el profesor.\n     *\n     * Se usa en creaEvaluacion y en califica.\n     */\n    modifier soloProfesor() {\n        require(msg.sender == profesor, \"Solo permitido al profesor\");\n        _;\n    }\n\n    /**\n     * Modificador para que una funcion solo la pueda ejecutar un alumno matriculado.\n     */\n    modifier soloMatriculados() {\n        require(\n            estaMatriculado(msg.sender),\n            \"Solo permitido a alumnos matriculados\"\n        );\n        _;\n    }\n\n    /**\n     * Modificador para que una funcion solo la pueda ejecutar un alumno no matriculado aun.\n     */\n    modifier soloNoMatriculados() {\n        require(\n            !estaMatriculado(msg.sender),\n            \"Solo permitido a alumnos no matriculados\"\n        );\n        _;\n    }\n\n    /**\n     */\n    modifier estaCerrada() {\n        require(\n            !cerrada,\n            unicode\"La asignatura ya est cerrada, no se puede modificar\"\n        );\n        _;\n    }\n\n    /**\n     * No se permite la recepcion de dinero.\n     */\n    receive() external payable {\n        revert(\"No se permite la recepcion de dinero.\");\n    }\n}\n",
  "sourcePath": "/Users/apabook/Desktop/bc/contracts/AsignaturaFull.sol",
  "compiler": {
    "name": "solc",
    "version": "0.8.21+commit.d9974bed.Emscripten.clang"
  },
  "schemaVersion": "3.4.16",
  "updatedAt": "2023-10-29T19:43:10.230Z",
  "devdoc": {
    "kind": "dev",
    "methods": {
      "automatricula(string,string)": {
        "params": {
          "_email": "El email del alumno.",
          "_nombre": "El nombre del alumno."
        }
      },
      "califica(address,uint256,uint8,uint256)": {
        "params": {
          "alumno": "La direccion del alumno.",
          "calificacion": "La calificacion, multipilicada por 100 porque no hay decimales.",
          "evaluacion": "El indice de una evaluacion en el array evaluaciones.",
          "tipo": "Tipo de nota."
        }
      },
      "creaEvaluacion(string,uint256,uint256)": {
        "params": {
          "_fecha": "La fecha de evaluacion (segundos desde el 1/1/1970).",
          "_nombre": "El nombre de la evaluacion.",
          "_porcentaje": "El porcentaje de puntos que proporciona a la nota final."
        },
        "returns": {
          "_0": "La posicion en el array evaluaciones,"
        }
      },
      "evaluacionesLength()": {
        "returns": {
          "_0": "El numero de evaluaciones creadas."
        }
      },
      "matriculasLength()": {
        "returns": {
          "_0": "El numero de alumnos matriculados."
        }
      },
      "miNota(uint256)": {
        "params": {
          "evaluacion": "Indice de una evaluacion en el array de evaluaciones."
        },
        "returns": {
          "calificacion": "La calificacion que ha sacado el alumno.",
          "tipo": "        El tipo de nota que ha sacado el alumno."
        }
      },
      "quienSoy()": {
        "returns": {
          "_email": " El email del alumno que invoca el metodo.",
          "_nombre": "El nombre del alumno que invoca el metodo."
        }
      }
    },
    "version": 1
  },
  "userdoc": {
    "kind": "user",
    "methods": {
      "automatricula(string,string)": {
        "notice": "Los alumnos pueden automatricularse con el metodo automatricula. Impedir que se pueda meter un nombre vacio."
      },
      "califica(address,uint256,uint8,uint256)": {
        "notice": "Poner la nota de un alumno en una evaluacion."
      },
      "creaEvaluacion(string,uint256,uint256)": {
        "notice": "Crear una prueba de evaluacion de la asignatura. Por ejemplo, el primer parcial, o la practica 3. Las evaluaciones se meteran en el array evaluaciones, y nos referiremos a ellas por su posicion en el array."
      },
      "evaluacionesLength()": {
        "notice": "El numero de evaluaciones creadas."
      },
      "matriculasLength()": {
        "notice": "El numero de alumnos matriculados."
      },
      "miNota(uint256)": {
        "notice": "Devuelve el tipo de nota y la calificacion que ha sacado el alumno que invoca el metodo en la evaluacion pasada como parametro."
      },
      "quienSoy()": {
        "notice": "Permite a un alumno obtener sus propios datos."
      }
    },
    "notice": "El contrato Asignatura que representa una asignatura de la carrera. Version Lite - Practicas",
    "version": 1
  }
}